

Microchip Technology PIC LITE Macro Assembler V1.44 build -154322312 
                                                                                               Sun Nov 05 14:05:32 2017

Microchip Technology Omniscient Code Generator v1.44 (Free mode) build 201709140600
     1                           	processor	16F18324
     2                           	opt	pw 120
     3                           	opt	lm
     4                           	psect	cinit,global,class=CODE,merge=1,delta=2
     5                           	psect	bssCOMMON,global,class=COMMON,space=1,delta=1
     6                           	psect	bssBANK0,global,class=BANK0,space=1,delta=1
     7                           	psect	clrtext,global,class=CODE,delta=2
     8                           	psect	cstackCOMMON,global,class=COMMON,space=1,delta=1
     9                           	psect	maintext,global,class=CODE,merge=1,split=1,delta=2
    10                           	psect	text1,local,class=CODE,merge=1,delta=2
    11                           	psect	intentry,global,class=CODE,delta=2
    12                           	psect	text3,local,class=CODE,merge=1,delta=2
    13                           	dabs	1,0x7E,2
    14  0000                     
    15                           ; Version 1.44
    16                           ; Generated 14/09/2017 GMT
    17                           ; 
    18                           ; Copyright © 2017, Microchip Technology Inc. and its subsidiaries ("Microchip")
    19                           ; All rights reserved.
    20                           ; 
    21                           ; This software is developed by Microchip Technology Inc. and its subsidiaries ("Microch
      +                          ip").
    22                           ; 
    23                           ; Redistribution and use in source and binary forms, with or without modification, are
    24                           ; permitted provided that the following conditions are met:
    25                           ; 
    26                           ;     1. Redistributions of source code must retain the above copyright notice, this lis
      +                          t of
    27                           ;        conditions and the following disclaimer.
    28                           ; 
    29                           ;     2. Redistributions in binary form must reproduce the above copyright notice, this 
      +                          list
    30                           ;        of conditions and the following disclaimer in the documentation and/or other
    31                           ;        materials provided with the distribution.
    32                           ; 
    33                           ;     3. Microchip's name may not be used to endorse or promote products derived from th
      +                          is
    34                           ;        software without specific prior written permission.
    35                           ; 
    36                           ; THIS SOFTWARE IS PROVIDED BY MICROCHIP "AS IS" AND ANY EXPRESS OR IMPLIED WARRANTIES,
    37                           ; INCLUDING, BUT NOT LIMITED TO, THE IMPLIED WARRANTIES OF MERCHANTABILITY AND FITNESS F
      +                          OR
    38                           ; PURPOSE ARE DISCLAIMED.  IN NO EVENT SHALL MICROCHIP BE LIABLE FOR ANY DIRECT, INDIREC
      +                          T,
    39                           ; INCIDENTAL, SPECIAL, EXEMPLARY, OR CONSEQUENTIAL DAMAGES (INCLUDING BUT NOT LIMITED TO
    40                           ; PROCUREMENT OF SUBSTITUTE GOODS OR SERVICES; LOSS OF USE, DATA OR PROFITS; OR BUSINESS
    41                           ; INTERRUPTION) HOWSOEVER CAUSED AND ON ANY THEORY OF LIABILITY, WHETHER IN CONTRACT, ST
      +                          RICT
    42                           ; LIABILITY, OR TORT (INCLUDING NEGLIGENCE OR OTHERWISE) ARISING IN ANY WAY OUT OF THE U
      +                          SE OF
    43                           ; THIS SOFTWARE, EVEN IF ADVISED OF THE POSSIBILITY OF SUCH DAMAGE.
    44                           ; 
    45                           ; 
    46                           ; Code-generator required, PIC16F18324 Definitions
    47                           ; 
    48                           ; SFR Addresses
    49  0000                     	;# 
    50  0001                     	;# 
    51  0002                     	;# 
    52  0003                     	;# 
    53  0004                     	;# 
    54  0005                     	;# 
    55  0006                     	;# 
    56  0007                     	;# 
    57  0008                     	;# 
    58  0009                     	;# 
    59  000A                     	;# 
    60  000B                     	;# 
    61  000C                     	;# 
    62  000E                     	;# 
    63  0010                     	;# 
    64  0011                     	;# 
    65  0012                     	;# 
    66  0013                     	;# 
    67  0014                     	;# 
    68  0015                     	;# 
    69  0015                     	;# 
    70  0016                     	;# 
    71  0016                     	;# 
    72  0017                     	;# 
    73  0018                     	;# 
    74  0019                     	;# 
    75  0019                     	;# 
    76  001A                     	;# 
    77  001B                     	;# 
    78  001C                     	;# 
    79  001D                     	;# 
    80  001E                     	;# 
    81  001F                     	;# 
    82  008C                     	;# 
    83  008E                     	;# 
    84  0090                     	;# 
    85  0091                     	;# 
    86  0092                     	;# 
    87  0093                     	;# 
    88  0094                     	;# 
    89  0097                     	;# 
    90  009B                     	;# 
    91  009B                     	;# 
    92  009C                     	;# 
    93  009D                     	;# 
    94  009E                     	;# 
    95  009F                     	;# 
    96  010C                     	;# 
    97  010E                     	;# 
    98  0111                     	;# 
    99  0112                     	;# 
   100  0113                     	;# 
   101  0114                     	;# 
   102  0115                     	;# 
   103  0116                     	;# 
   104  0117                     	;# 
   105  0118                     	;# 
   106  0119                     	;# 
   107  018C                     	;# 
   108  018E                     	;# 
   109  0197                     	;# 
   110  0199                     	;# 
   111  0199                     	;# 
   112  0199                     	;# 
   113  019A                     	;# 
   114  019A                     	;# 
   115  019A                     	;# 
   116  019B                     	;# 
   117  019B                     	;# 
   118  019B                     	;# 
   119  019B                     	;# 
   120  019B                     	;# 
   121  019C                     	;# 
   122  019C                     	;# 
   123  019C                     	;# 
   124  019D                     	;# 
   125  019D                     	;# 
   126  019D                     	;# 
   127  019E                     	;# 
   128  019E                     	;# 
   129  019E                     	;# 
   130  019F                     	;# 
   131  019F                     	;# 
   132  019F                     	;# 
   133  019F                     	;# 
   134  019F                     	;# 
   135  020C                     	;# 
   136  020E                     	;# 
   137  0211                     	;# 
   138  0211                     	;# 
   139  0212                     	;# 
   140  0212                     	;# 
   141  0213                     	;# 
   142  0213                     	;# 
   143  0214                     	;# 
   144  0214                     	;# 
   145  0215                     	;# 
   146  0215                     	;# 
   147  0215                     	;# 
   148  0215                     	;# 
   149  0216                     	;# 
   150  0216                     	;# 
   151  0217                     	;# 
   152  0217                     	;# 
   153  028C                     	;# 
   154  028E                     	;# 
   155  0291                     	;# 
   156  0291                     	;# 
   157  0292                     	;# 
   158  0293                     	;# 
   159  0294                     	;# 
   160  0295                     	;# 
   161  0295                     	;# 
   162  0296                     	;# 
   163  0297                     	;# 
   164  0298                     	;# 
   165  029F                     	;# 
   166  030C                     	;# 
   167  030E                     	;# 
   168  0311                     	;# 
   169  0311                     	;# 
   170  0312                     	;# 
   171  0313                     	;# 
   172  0314                     	;# 
   173  0315                     	;# 
   174  0315                     	;# 
   175  0316                     	;# 
   176  0317                     	;# 
   177  0318                     	;# 
   178  038C                     	;# 
   179  038E                     	;# 
   180  0391                     	;# 
   181  0392                     	;# 
   182  0393                     	;# 
   183  0397                     	;# 
   184  0398                     	;# 
   185  0399                     	;# 
   186  039A                     	;# 
   187  039C                     	;# 
   188  039D                     	;# 
   189  039E                     	;# 
   190  039F                     	;# 
   191  0411                     	;# 
   192  0411                     	;# 
   193  0412                     	;# 
   194  0413                     	;# 
   195  0414                     	;# 
   196  0415                     	;# 
   197  0416                     	;# 
   198  0417                     	;# 
   199  0418                     	;# 
   200  0418                     	;# 
   201  0419                     	;# 
   202  041A                     	;# 
   203  041B                     	;# 
   204  041C                     	;# 
   205  041D                     	;# 
   206  041E                     	;# 
   207  041F                     	;# 
   208  0498                     	;# 
   209  0498                     	;# 
   210  0499                     	;# 
   211  049A                     	;# 
   212  049B                     	;# 
   213  049B                     	;# 
   214  049C                     	;# 
   215  049D                     	;# 
   216  049E                     	;# 
   217  049F                     	;# 
   218  0617                     	;# 
   219  0618                     	;# 
   220  0619                     	;# 
   221  0619                     	;# 
   222  061A                     	;# 
   223  061B                     	;# 
   224  061C                     	;# 
   225  061C                     	;# 
   226  061F                     	;# 
   227  0691                     	;# 
   228  0692                     	;# 
   229  0693                     	;# 
   230  0694                     	;# 
   231  0695                     	;# 
   232  0696                     	;# 
   233  0697                     	;# 
   234  0698                     	;# 
   235  0699                     	;# 
   236  0711                     	;# 
   237  0712                     	;# 
   238  0713                     	;# 
   239  0714                     	;# 
   240  0715                     	;# 
   241  0716                     	;# 
   242  0717                     	;# 
   243  0718                     	;# 
   244  0719                     	;# 
   245  0891                     	;# 
   246  0891                     	;# 
   247  0891                     	;# 
   248  0891                     	;# 
   249  0891                     	;# 
   250  0891                     	;# 
   251  0892                     	;# 
   252  0892                     	;# 
   253  0892                     	;# 
   254  0893                     	;# 
   255  0893                     	;# 
   256  0893                     	;# 
   257  0893                     	;# 
   258  0893                     	;# 
   259  0893                     	;# 
   260  0894                     	;# 
   261  0894                     	;# 
   262  0894                     	;# 
   263  0895                     	;# 
   264  0895                     	;# 
   265  0895                     	;# 
   266  0896                     	;# 
   267  0896                     	;# 
   268  0896                     	;# 
   269  089B                     	;# 
   270  0911                     	;# 
   271  0912                     	;# 
   272  0913                     	;# 
   273  0914                     	;# 
   274  0915                     	;# 
   275  0916                     	;# 
   276  0918                     	;# 
   277  0919                     	;# 
   278  091A                     	;# 
   279  091B                     	;# 
   280  091C                     	;# 
   281  091D                     	;# 
   282  091E                     	;# 
   283  091F                     	;# 
   284  0E0F                     	;# 
   285  0E10                     	;# 
   286  0E11                     	;# 
   287  0E12                     	;# 
   288  0E13                     	;# 
   289  0E14                     	;# 
   290  0E15                     	;# 
   291  0E16                     	;# 
   292  0E17                     	;# 
   293  0E18                     	;# 
   294  0E19                     	;# 
   295  0E1A                     	;# 
   296  0E1B                     	;# 
   297  0E1C                     	;# 
   298  0E20                     	;# 
   299  0E21                     	;# 
   300  0E22                     	;# 
   301  0E24                     	;# 
   302  0E25                     	;# 
   303  0E28                     	;# 
   304  0E29                     	;# 
   305  0E2A                     	;# 
   306  0E2B                     	;# 
   307  0E2C                     	;# 
   308  0E2D                     	;# 
   309  0E2E                     	;# 
   310  0E2F                     	;# 
   311  0E90                     	;# 
   312  0E91                     	;# 
   313  0E92                     	;# 
   314  0E94                     	;# 
   315  0E95                     	;# 
   316  0EA0                     	;# 
   317  0EA1                     	;# 
   318  0EA2                     	;# 
   319  0EA3                     	;# 
   320  0EA4                     	;# 
   321  0EA5                     	;# 
   322  0F0F                     	;# 
   323  0F10                     	;# 
   324  0F11                     	;# 
   325  0F12                     	;# 
   326  0F13                     	;# 
   327  0F14                     	;# 
   328  0F15                     	;# 
   329  0F16                     	;# 
   330  0F17                     	;# 
   331  0F18                     	;# 
   332  0F19                     	;# 
   333  0F1A                     	;# 
   334  0F1B                     	;# 
   335  0F1C                     	;# 
   336  0F1D                     	;# 
   337  0F1E                     	;# 
   338  0F1F                     	;# 
   339  0F20                     	;# 
   340  0F21                     	;# 
   341  0F22                     	;# 
   342  0F23                     	;# 
   343  0F24                     	;# 
   344  0F25                     	;# 
   345  0F26                     	;# 
   346  0F27                     	;# 
   347  0F28                     	;# 
   348  0F29                     	;# 
   349  0F2A                     	;# 
   350  0F2B                     	;# 
   351  0F2C                     	;# 
   352  0F2D                     	;# 
   353  0F2E                     	;# 
   354  0F2F                     	;# 
   355  0F30                     	;# 
   356  0F31                     	;# 
   357  0F32                     	;# 
   358  0F33                     	;# 
   359  0F34                     	;# 
   360  0F35                     	;# 
   361  0F36                     	;# 
   362  0F37                     	;# 
   363  0FE4                     	;# 
   364  0FE5                     	;# 
   365  0FE6                     	;# 
   366  0FE7                     	;# 
   367  0FE8                     	;# 
   368  0FE9                     	;# 
   369  0FEA                     	;# 
   370  0FEB                     	;# 
   371  0FED                     	;# 
   372  0FEE                     	;# 
   373  0FEF                     	;# 
   374  0017                     _T0CON0bits	set	23
   375  0018                     _T0CON1bits	set	24
   376  000B                     _INTCONbits	set	11
   377  0010                     _PIR0bits	set	16
   378  000E                     _PORTCbits	set	14
   379  0085                     _TMR0IF	set	133
   380  0090                     _PIE0bits	set	144
   381  009E                     _ADCON1bits	set	158
   382  009D                     _ADCON0bits	set	157
   383  008C                     _TRISAbits	set	140
   384  008E                     _TRISCbits	set	142
   385  018C                     _ANSELAbits	set	396
   386  018E                     _ANSELCbits	set	398
   387  0214                     _SSP1STATbits	set	532
   388  0211                     _SSP1BUF	set	529
   389  0215                     _SSP1CON1bits	set	533
   390  091F                     _OSCFRQ	set	2335
   391  0919                     _OSCCON1	set	2329
   392  0EA2                     _RC2PPS	set	3746
   393                           
   394                           ; #config settings
   395  0000                     
   396                           	psect	cinit
   397  0083                     start_initialization:	
   398  0083                     __initialization:	
   399                           
   400                           ; Clear objects allocated to COMMON
   401  0083  01F7               	clrf	__pbssCOMMON& (0+127)
   402  0084  01F8               	clrf	(__pbssCOMMON+1)& (0+127)
   403  0085  01F9               	clrf	(__pbssCOMMON+2)& (0+127)
   404  0086  01FA               	clrf	(__pbssCOMMON+3)& (0+127)
   405  0087  01FB               	clrf	(__pbssCOMMON+4)& (0+127)
   406  0088  01FC               	clrf	(__pbssCOMMON+5)& (0+127)
   407                           
   408                           ; Clear objects allocated to BANK0
   409  0089  3020               	movlw	low __pbssBANK0
   410  008A  0084               	movwf	4
   411  008B  3000               	movlw	high __pbssBANK0
   412  008C  0085               	movwf	5
   413  008D  3018               	movlw	24
   414  008E  3181  216D         	fcall	clear_ram0
   415  0090                     end_of_initialization:	
   416                           ;End of C runtime variable initialization code
   417                           
   418  0090                     __end_of__initialization:	
   419  0090  107E               	bcf	int$flags,0	;clear compiler interrupt flag (level 1)
   420  0091  0020               	movlb	0
   421  0092  3180  2894         	ljmp	_main	;jump to C main() function
   422                           
   423                           	psect	bssCOMMON
   424  0077                     __pbssCOMMON:	
   425  0077                     _h:	
   426  0077                     	ds	2
   427  0079                     _state:	
   428  0079                     	ds	2
   429  007B                     _i:	
   430  007B                     	ds	2
   431                           
   432                           	psect	bssBANK0
   433  0020                     __pbssBANK0:	
   434  0020                     _hex:	
   435  0020                     	ds	24
   436                           
   437                           	psect	clrtext
   438  016D                     clear_ram0:	
   439                           ;	Called with FSR0 containing the base address, and
   440                           ;	WREG with the size to clear
   441                           
   442  016D  0064               	clrwdt	;clear the watchdog before getting into this loop
   443  016E                     clrloop0:	
   444  016E  0180               	clrf	0	;clear RAM location pointed to by FSR
   445  016F  3101               	addfsr 0,1
   446  0170  0B89               	decfsz	9,f	;Have we reached the end of clearing yet?
   447  0171  296E               	goto	clrloop0	;have we reached the end yet?
   448  0172  3400               	retlw	0	;all done for this memory range, return
   449                           
   450                           	psect	cstackCOMMON
   451  0070                     __pcstackCOMMON:	
   452  0070                     ?_init:	
   453  0070                     ?_shiftIn:	
   454                           ; 1 bytes @ 0x0
   455                           
   456  0070                     ??_shiftIn:	
   457                           ; 1 bytes @ 0x0
   458                           
   459  0070                     ?_main:	
   460                           ; 1 bytes @ 0x0
   461                           
   462  0070                     ?_interruptRoutine:	
   463                           ; 1 bytes @ 0x0
   464                           
   465  0070                     shiftIn@data:	
   466                           ; 1 bytes @ 0x0
   467                           
   468                           
   469                           ; 1 bytes @ 0x0
   470  0070                     	ds	1
   471  0071                     ??_interruptRoutine:	
   472                           
   473                           ; 1 bytes @ 0x1
   474  0071                     	ds	3
   475  0074                     ??_init:	
   476  0074                     ??_main:	
   477                           ; 1 bytes @ 0x4
   478                           
   479                           
   480                           ; 1 bytes @ 0x4
   481  0074                     	ds	3
   482                           
   483                           	psect	maintext
   484  0094                     __pmaintext:	
   485 ;;
   486 ;;Main: autosize = 0, tempsize = 3, incstack = 0, save=0
   487 ;;
   488 ;; *************** function _main *****************
   489 ;; Defined at:
   490 ;;		line 36 in file "SPI.c"
   491 ;; Parameters:    Size  Location     Type
   492 ;;		None
   493 ;; Auto vars:     Size  Location     Type
   494 ;;		None
   495 ;; Return value:  Size  Location     Type
   496 ;;                  1    wreg      void 
   497 ;; Registers used:
   498 ;;		wreg, fsr1l, fsr1h, status,2, status,0, pclath, cstack
   499 ;; Tracked objects:
   500 ;;		On entry : B1F/0
   501 ;;		On exit  : 0/0
   502 ;;		Unchanged: 0/0
   503 ;; Data sizes:     COMMON   BANK0   BANK1   BANK2   BANK3   BANK4   BANK5   BANK6
   504 ;;      Params:         0       0       0       0       0       0       0       0
   505 ;;      Locals:         0       0       0       0       0       0       0       0
   506 ;;      Temps:          3       0       0       0       0       0       0       0
   507 ;;      Totals:         3       0       0       0       0       0       0       0
   508 ;;Total ram usage:        3 bytes
   509 ;; Hardware stack levels required when called:    3
   510 ;; This function calls:
   511 ;;		_init
   512 ;; This function is called by:
   513 ;;		Startup code after reset
   514 ;; This function uses a non-reentrant model
   515 ;;
   516                           
   517                           
   518                           ;psect for function _main
   519  0094                     _main:	
   520                           
   521                           ;SPI.c: 39: for(i = 0; i < 8; i++) {
   522                           
   523                           ;incstack = 0
   524                           ; Regs used in _main: [wreg+fsr1l+fsr1h+status,2+status,0+pclath+cstack]
   525  0094  01FB               	clrf	_i
   526  0095  01FC               	clrf	_i+1
   527  0096  087C               	movf	_i+1,w
   528  0097  3A80               	xorlw	128
   529  0098  00F4               	movwf	??_main
   530  0099  3080               	movlw	128
   531  009A  0274               	subwf	??_main,w
   532  009B  3008               	movlw	8
   533  009C  1903               	btfsc	3,2
   534  009D  027B               	subwf	_i,w
   535  009E  1803               	btfsc	3,0
   536  009F  28C4               	goto	l615
   537  00A0                     l609:	
   538                           
   539                           ;SPI.c: 40: hex[i] = 1 & (0x0082ff >> 15 - i);
   540  00A0  30FF               	movlw	255
   541  00A1  00F4               	movwf	??_main
   542  00A2  3082               	movlw	130
   543  00A3  00F5               	movwf	??_main+1
   544  00A4  037B               	decf	_i,w
   545  00A5  3AFF               	xorlw	255
   546  00A6  3E0F               	addlw	15
   547  00A7  0A89               	incf	9,f
   548  00A8  28AB               	goto	u34
   549  00A9                     u35:	
   550  00A9  36F5               	lsrf	??_main+1,f
   551  00AA  0CF4               	rrf	??_main,f
   552  00AB                     u34:	
   553  00AB  0B89               	decfsz	9,f
   554  00AC  28A9               	goto	u35
   555  00AD  0874               	movf	??_main,w
   556  00AE  3901               	andlw	1
   557  00AF  00F6               	movwf	??_main+2
   558  00B0  087B               	movf	_i,w
   559  00B1  3E20               	addlw	(low (_hex| 0))& (0+255)
   560  00B2  0086               	movwf	6
   561  00B3  0187               	clrf	7
   562  00B4  0876               	movf	??_main+2,w
   563  00B5  0081               	movwf	1
   564  00B6  3001               	movlw	1
   565  00B7  07FB               	addwf	_i,f
   566  00B8  3000               	movlw	0
   567  00B9  3DFC               	addwfc	_i+1,f
   568  00BA  087C               	movf	_i+1,w
   569  00BB  3A80               	xorlw	128
   570  00BC  00F4               	movwf	??_main
   571  00BD  3080               	movlw	128
   572  00BE  0274               	subwf	??_main,w
   573  00BF  3008               	movlw	8
   574  00C0  1903               	btfsc	3,2
   575  00C1  027B               	subwf	_i,w
   576  00C2  1C03               	skipc
   577  00C3  28A0               	goto	l609
   578  00C4                     l615:	
   579                           
   580                           ;SPI.c: 41: }
   581                           ;SPI.c: 43: for(i = 8; i < 16; i++) {
   582  00C4  3008               	movlw	8
   583  00C5  00FB               	movwf	_i
   584  00C6  3000               	movlw	0
   585  00C7  00FC               	movwf	_i+1
   586  00C8  087C               	movf	_i+1,w
   587  00C9  3A80               	xorlw	128
   588  00CA  00F4               	movwf	??_main
   589  00CB  3080               	movlw	128
   590  00CC  0274               	subwf	??_main,w
   591  00CD  1D03               	skipz
   592  00CE  28D1               	goto	u55
   593  00CF  3010               	movlw	16
   594  00D0  027B               	subwf	_i,w
   595  00D1                     u55:	
   596  00D1  1803               	btfsc	3,0
   597  00D2  28FA               	goto	l625
   598  00D3                     l619:	
   599                           
   600                           ;SPI.c: 44: hex[i] = 1 & (0x0082ff >> 23 - (i - 8));
   601  00D3  30FF               	movlw	255
   602  00D4  00F4               	movwf	??_main
   603  00D5  3082               	movlw	130
   604  00D6  00F5               	movwf	??_main+1
   605  00D7  087B               	movf	_i,w
   606  00D8  3EF8               	addlw	-8
   607  00D9  3AFF               	xorlw	255
   608  00DA  3E01               	addlw	1
   609  00DB  3E17               	addlw	23
   610  00DC  0A89               	incf	9,f
   611  00DD  28E0               	goto	u64
   612  00DE                     u65:	
   613  00DE  36F5               	lsrf	??_main+1,f
   614  00DF  0CF4               	rrf	??_main,f
   615  00E0                     u64:	
   616  00E0  0B89               	decfsz	9,f
   617  00E1  28DE               	goto	u65
   618  00E2  0874               	movf	??_main,w
   619  00E3  3901               	andlw	1
   620  00E4  00F6               	movwf	??_main+2
   621  00E5  087B               	movf	_i,w
   622  00E6  3E20               	addlw	(low (_hex| 0))& (0+255)
   623  00E7  0086               	movwf	6
   624  00E8  0187               	clrf	7
   625  00E9  0876               	movf	??_main+2,w
   626  00EA  0081               	movwf	1
   627  00EB  3001               	movlw	1
   628  00EC  07FB               	addwf	_i,f
   629  00ED  3000               	movlw	0
   630  00EE  3DFC               	addwfc	_i+1,f
   631  00EF  087C               	movf	_i+1,w
   632  00F0  3A80               	xorlw	128
   633  00F1  00F4               	movwf	??_main
   634  00F2  3080               	movlw	128
   635  00F3  0274               	subwf	??_main,w
   636  00F4  1D03               	skipz
   637  00F5  28F8               	goto	u75
   638  00F6  3010               	movlw	16
   639  00F7  027B               	subwf	_i,w
   640  00F8                     u75:	
   641  00F8  1C03               	skipc
   642  00F9  28D3               	goto	l619
   643  00FA                     l625:	
   644                           
   645                           ;SPI.c: 45: }
   646                           ;SPI.c: 47: for(i = 16; i < 24; i++) {
   647  00FA  3010               	movlw	16
   648  00FB  00FB               	movwf	_i
   649  00FC  3000               	movlw	0
   650  00FD  00FC               	movwf	_i+1
   651  00FE  087C               	movf	_i+1,w
   652  00FF  3A80               	xorlw	128
   653  0100  00F4               	movwf	??_main
   654  0101  3080               	movlw	128
   655  0102  0274               	subwf	??_main,w
   656  0103  1D03               	skipz
   657  0104  2907               	goto	u85
   658  0105  3018               	movlw	24
   659  0106  027B               	subwf	_i,w
   660  0107                     u85:	
   661  0107  1803               	btfsc	3,0
   662  0108  2930               	goto	l635
   663  0109                     l629:	
   664                           
   665                           ;SPI.c: 48: hex[i] = 1 & ((0x0082ff >> 7 - (i - 16)));
   666  0109  30FF               	movlw	255
   667  010A  00F4               	movwf	??_main
   668  010B  3082               	movlw	130
   669  010C  00F5               	movwf	??_main+1
   670  010D  087B               	movf	_i,w
   671  010E  3EF0               	addlw	-16
   672  010F  3AFF               	xorlw	255
   673  0110  3E01               	addlw	1
   674  0111  3E07               	addlw	7
   675  0112  0A89               	incf	9,f
   676  0113  2916               	goto	u94
   677  0114                     u95:	
   678  0114  36F5               	lsrf	??_main+1,f
   679  0115  0CF4               	rrf	??_main,f
   680  0116                     u94:	
   681  0116  0B89               	decfsz	9,f
   682  0117  2914               	goto	u95
   683  0118  0874               	movf	??_main,w
   684  0119  3901               	andlw	1
   685  011A  00F6               	movwf	??_main+2
   686  011B  087B               	movf	_i,w
   687  011C  3E20               	addlw	(low (_hex| 0))& (0+255)
   688  011D  0086               	movwf	6
   689  011E  0187               	clrf	7
   690  011F  0876               	movf	??_main+2,w
   691  0120  0081               	movwf	1
   692  0121  3001               	movlw	1
   693  0122  07FB               	addwf	_i,f
   694  0123  3000               	movlw	0
   695  0124  3DFC               	addwfc	_i+1,f
   696  0125  087C               	movf	_i+1,w
   697  0126  3A80               	xorlw	128
   698  0127  00F4               	movwf	??_main
   699  0128  3080               	movlw	128
   700  0129  0274               	subwf	??_main,w
   701  012A  1D03               	skipz
   702  012B  292E               	goto	u105
   703  012C  3018               	movlw	24
   704  012D  027B               	subwf	_i,w
   705  012E                     u105:	
   706  012E  1C03               	skipc
   707  012F  2909               	goto	l629
   708  0130                     l635:	
   709                           
   710                           ;SPI.c: 49: }
   711                           ;SPI.c: 50: init();
   712  0130  3181  2134  3180   	fcall	_init
   713  0133                     l61:	
   714                           ;SPI.c: 51: while (1)
   715                           
   716                           
   717                           ;SPI.c: 52: {
   718  0133  2933               	goto	l61
   719  0134                     __end_of_main:	
   720                           
   721                           	psect	text1
   722  0134                     __ptext1:	
   723 ;; *************** function _init *****************
   724 ;; Defined at:
   725 ;;		line 129 in file "SPI.c"
   726 ;; Parameters:    Size  Location     Type
   727 ;;		None
   728 ;; Auto vars:     Size  Location     Type
   729 ;;		None
   730 ;; Return value:  Size  Location     Type
   731 ;;                  1    wreg      void 
   732 ;; Registers used:
   733 ;;		wreg, status,2, status,0
   734 ;; Tracked objects:
   735 ;;		On entry : 0/0
   736 ;;		On exit  : 0/0
   737 ;;		Unchanged: 0/0
   738 ;; Data sizes:     COMMON   BANK0   BANK1   BANK2   BANK3   BANK4   BANK5   BANK6
   739 ;;      Params:         0       0       0       0       0       0       0       0
   740 ;;      Locals:         0       0       0       0       0       0       0       0
   741 ;;      Temps:          0       0       0       0       0       0       0       0
   742 ;;      Totals:         0       0       0       0       0       0       0       0
   743 ;;Total ram usage:        0 bytes
   744 ;; Hardware stack levels used:    1
   745 ;; Hardware stack levels required when called:    2
   746 ;; This function calls:
   747 ;;		Nothing
   748 ;; This function is called by:
   749 ;;		_main
   750 ;; This function uses a non-reentrant model
   751 ;;
   752                           
   753                           
   754                           ;psect for function _init
   755  0134                     _init:	
   756                           
   757                           ;SPI.c: 137: OSCCON1 = 0x00;
   758                           
   759                           ;incstack = 0
   760                           ; Regs used in _init: [wreg+status,2+status,0]
   761  0134  0032               	movlb	18	; select bank18
   762  0135  0199               	clrf	25	;volatile
   763                           
   764                           ;SPI.c: 138: OSCFRQ = 0x04;
   765  0136  3004               	movlw	4
   766  0137  009F               	movwf	31	;volatile
   767                           
   768                           ;SPI.c: 144: TRISCbits.TRISC4 = 1;
   769  0138  0021               	movlb	1	; select bank1
   770  0139  160E               	bsf	14,4	;volatile
   771                           
   772                           ;SPI.c: 145: ANSELCbits.ANSC4 = 0;
   773  013A  0023               	movlb	3	; select bank3
   774  013B  120E               	bcf	14,4	;volatile
   775                           
   776                           ;SPI.c: 152: TRISAbits.TRISA2 = 1;
   777  013C  0021               	movlb	1	; select bank1
   778  013D  150C               	bsf	12,2	;volatile
   779                           
   780                           ;SPI.c: 153: ANSELAbits.ANSA2 = 1;
   781  013E  0023               	movlb	3	; select bank3
   782  013F  150C               	bsf	12,2	;volatile
   783                           
   784                           ;SPI.c: 156: ADCON0bits.CHS = 0b000010;
   785  0140  0021               	movlb	1	; select bank1
   786  0141  081D               	movf	29,w	;volatile
   787  0142  3903               	andlw	-253
   788  0143  3808               	iorlw	8
   789  0144  009D               	movwf	29	;volatile
   790                           
   791                           ;SPI.c: 157: ADCON1bits.ADFM = 0;
   792  0145  139E               	bcf	30,7	;volatile
   793                           
   794                           ;SPI.c: 158: ADCON1bits.ADCS = 0b101;
   795  0146  081E               	movf	30,w	;volatile
   796  0147  398F               	andlw	-113
   797  0148  3850               	iorlw	80
   798  0149  009E               	movwf	30	;volatile
   799                           
   800                           ;SPI.c: 159: ADCON0bits.ADON = 1;
   801  014A  141D               	bsf	29,0	;volatile
   802                           
   803                           ;SPI.c: 165: INTCONbits.GIE = 1;
   804  014B  178B               	bsf	11,7	;volatile
   805                           
   806                           ;SPI.c: 166: INTCONbits.PEIE = 1;
   807  014C  170B               	bsf	11,6	;volatile
   808                           
   809                           ;SPI.c: 167: PIE0bits.TMR0IE = 1;
   810  014D  1690               	bsf	16,5	;volatile
   811                           
   812                           ;SPI.c: 170: T0CON1bits.T0CS = 0b010;
   813  014E  0020               	movlb	0	; select bank0
   814  014F  0818               	movf	24,w	;volatile
   815  0150  391F               	andlw	-225
   816  0151  3840               	iorlw	64
   817  0152  0098               	movwf	24	;volatile
   818                           
   819                           ;SPI.c: 171: T0CON1bits.T0CKPS = 0xB;
   820  0153  0818               	movf	24,w	;volatile
   821  0154  39F0               	andlw	-16
   822  0155  380B               	iorlw	11
   823  0156  0098               	movwf	24	;volatile
   824                           
   825                           ;SPI.c: 172: T0CON0bits.T016BIT = 0;
   826  0157  1217               	bcf	23,4	;volatile
   827                           
   828                           ;SPI.c: 173: T0CON0bits.T0EN = 1;
   829  0158  1797               	bsf	23,7	;volatile
   830                           
   831                           ;SPI.c: 176: SSP1CON1bits.SSPEN = 1;
   832  0159  0024               	movlb	4	; select bank4
   833  015A  1695               	bsf	21,5	;volatile
   834                           
   835                           ;SPI.c: 177: SSP1CON1bits.CKP = 1;
   836  015B  1615               	bsf	21,4	;volatile
   837                           
   838                           ;SPI.c: 178: SSP1CON1bits.SSPM = 0x0;
   839  015C  30F0               	movlw	-16
   840  015D  0595               	andwf	21,f	;volatile
   841                           
   842                           ;SPI.c: 179: TRISCbits.TRISC2 = 0; RC2PPS = 0b11001;
   843  015E  0021               	movlb	1	; select bank1
   844  015F  110E               	bcf	14,2	;volatile
   845  0160  3019               	movlw	25
   846  0161  003D               	movlb	29	; select bank29
   847  0162  00A2               	movwf	34	;volatile
   848  0163  0008               	return
   849  0164                     __end_of_init:	
   850                           
   851                           	psect	intentry
   852  0004                     __pintentry:	
   853 ;; *************** function _interruptRoutine *****************
   854 ;; Defined at:
   855 ;;		line 59 in file "SPI.c"
   856 ;; Parameters:    Size  Location     Type
   857 ;;		None
   858 ;; Auto vars:     Size  Location     Type
   859 ;;		None
   860 ;; Return value:  Size  Location     Type
   861 ;;                  1    wreg      void 
   862 ;; Registers used:
   863 ;;		wreg, fsr1l, fsr1h, status,2, status,0, pclath, cstack
   864 ;; Tracked objects:
   865 ;;		On entry : 0/0
   866 ;;		On exit  : 0/0
   867 ;;		Unchanged: 0/0
   868 ;; Data sizes:     COMMON   BANK0   BANK1   BANK2   BANK3   BANK4   BANK5   BANK6
   869 ;;      Params:         0       0       0       0       0       0       0       0
   870 ;;      Locals:         0       0       0       0       0       0       0       0
   871 ;;      Temps:          3       0       0       0       0       0       0       0
   872 ;;      Totals:         3       0       0       0       0       0       0       0
   873 ;;Total ram usage:        3 bytes
   874 ;; Hardware stack levels used:    1
   875 ;; Hardware stack levels required when called:    1
   876 ;; This function calls:
   877 ;;		_shiftIn
   878 ;; This function is called by:
   879 ;;		Interrupt level 1
   880 ;; This function uses a non-reentrant model
   881 ;;
   882                           
   883  0004                     _interruptRoutine:	
   884                           
   885                           ;incstack = 0
   886  0004  147E               	bsf	126,0	;set compiler interrupt flag (level 1)
   887                           
   888                           ; Regs used in _interruptRoutine: [wreg+fsr1l+fsr1h+status,2+status,0+pclath+cstack]
   889  0005  3180               	pagesel	$
   890  0006  0020               	movlb	0	; select bank0
   891  0007  087F               	movf	127,w
   892  0008  00F3               	movwf	??_interruptRoutine+2
   893                           
   894                           ;SPI.c: 60: if (!PORTCbits.RC4) {
   895  0009  1E0E               	btfss	14,4	;volatile
   896                           
   897                           ;SPI.c: 61: if (PIR0bits.TMR0IF) {
   898  000A  1E90               	btfss	16,5	;volatile
   899  000B  287C               	goto	i1l81
   900                           
   901                           ;SPI.c: 62: TMR0IF = 0;
   902  000C  1290               	bcf	16,5	;volatile
   903                           
   904                           ;SPI.c: 92: state = (state + 1) % 32;
   905  000D  0879               	movf	_state,w
   906  000E  3E01               	addlw	1
   907  000F  00F1               	movwf	??_interruptRoutine
   908  0010  3000               	movlw	0
   909  0011  3D7A               	addwfc	_state+1,w
   910  0012  00F2               	movwf	??_interruptRoutine+1
   911  0013  301F               	movlw	31
   912  0014  0571               	andwf	??_interruptRoutine,w
   913  0015  00F9               	movwf	_state
   914  0016  3000               	movlw	0
   915  0017  0572               	andwf	??_interruptRoutine+1,w
   916  0018  00FA               	movwf	_state+1
   917                           
   918                           ;SPI.c: 93: for (i = 0; i < 32; i++) {
   919  0019  01FB               	clrf	_i
   920  001A  01FC               	clrf	_i+1
   921  001B  087C               	movf	_i+1,w
   922  001C  3A80               	xorlw	128
   923  001D  00F1               	movwf	??_interruptRoutine
   924  001E  3080               	movlw	128
   925  001F  0271               	subwf	??_interruptRoutine,w
   926  0020  1D03               	skipz
   927  0021  2824               	goto	u13_25
   928  0022  3020               	movlw	32
   929  0023  027B               	subwf	_i,w
   930  0024                     u13_25:	
   931  0024  1803               	btfsc	3,0
   932  0025  287C               	goto	i1l81
   933  0026                     i1l651:	
   934                           
   935                           ;SPI.c: 94: if (i == state) {
   936  0026  087A               	movf	_state+1,w
   937  0027  067C               	xorwf	_i+1,w
   938  0028  1D03               	skipz
   939  0029  282C               	goto	u14_25
   940  002A  0879               	movf	_state,w
   941  002B  067B               	xorwf	_i,w
   942  002C                     u14_25:	
   943  002C  1D03               	skipz
   944  002D  284D               	goto	i1l669
   945                           
   946                           ;SPI.c: 95: for (h = 0; h < 24; h++)
   947  002E  01F7               	clrf	_h
   948  002F  01F8               	clrf	_h+1
   949  0030                     L2:	
   950  0030  0878               	movf	_h+1,w
   951  0031  3A80               	xorlw	128
   952  0032  00F1               	movwf	??_interruptRoutine
   953  0033  3080               	movlw	128
   954  0034  0271               	subwf	??_interruptRoutine,w
   955  0035  1D03               	skipz
   956  0036  2839               	goto	u15_25
   957  0037  3018               	movlw	24
   958  0038  0277               	subwf	_h,w
   959  0039                     u15_25:	
   960  0039  1803               	btfsc	3,0
   961  003A  286D               	goto	i1l681
   962                           
   963                           ;SPI.c: 96: if (hex[h]) shiftIn(0xE0);
   964  003B  0877               	movf	_h,w
   965  003C  3E20               	addlw	(low (_hex| 0))& (0+255)
   966  003D  0086               	movwf	6
   967  003E  0187               	clrf	7
   968  003F  0801               	movf	1,w
   969  0040  1903               	btfsc	3,2
   970  0041  2844               	goto	i1l663
   971  0042  30E0               	movlw	224
   972  0043  2845               	goto	L1
   973  0044                     i1l663:	
   974                           
   975                           ;SPI.c: 97: else shiftIn(0x80);
   976  0044  3080               	movlw	128
   977  0045                     L1:	
   978  0045  3181  2164  3180   	fcall	_shiftIn
   979  0048  3001               	movlw	1
   980  0049  07F7               	addwf	_h,f
   981  004A  3000               	movlw	0
   982  004B  3DF8               	addwfc	_h+1,f
   983  004C  2830               	goto	L2
   984  004D                     i1l669:	
   985                           ;SPI.c: 98: } else for (h = 0; h < 24; h++) shiftIn(0x80);
   986                           
   987  004D  01F7               	clrf	_h
   988  004E  01F8               	clrf	_h+1
   989  004F  0878               	movf	_h+1,w
   990  0050  3A80               	xorlw	128
   991  0051  00F1               	movwf	??_interruptRoutine
   992  0052  3080               	movlw	128
   993  0053  0271               	subwf	??_interruptRoutine,w
   994  0054  1D03               	skipz
   995  0055  2858               	goto	u18_25
   996  0056  3018               	movlw	24
   997  0057  0277               	subwf	_h,w
   998  0058                     u18_25:	
   999  0058  1803               	btfsc	3,0
  1000  0059  286D               	goto	i1l681
  1001  005A                     i1l675:	
  1002  005A  3080               	movlw	128
  1003  005B  3181  2164  3180   	fcall	_shiftIn
  1004  005E  3001               	movlw	1
  1005  005F  07F7               	addwf	_h,f
  1006  0060  3000               	movlw	0
  1007  0061  3DF8               	addwfc	_h+1,f
  1008  0062  0878               	movf	_h+1,w
  1009  0063  3A80               	xorlw	128
  1010  0064  00F1               	movwf	??_interruptRoutine
  1011  0065  3080               	movlw	128
  1012  0066  0271               	subwf	??_interruptRoutine,w
  1013  0067  1D03               	skipz
  1014  0068  286B               	goto	u19_25
  1015  0069  3018               	movlw	24
  1016  006A  0277               	subwf	_h,w
  1017  006B                     u19_25:	
  1018  006B  1C03               	skipc
  1019  006C  285A               	goto	i1l675
  1020  006D                     i1l681:	
  1021  006D  3001               	movlw	1
  1022  006E  07FB               	addwf	_i,f
  1023  006F  3000               	movlw	0
  1024  0070  3DFC               	addwfc	_i+1,f
  1025  0071  087C               	movf	_i+1,w
  1026  0072  3A80               	xorlw	128
  1027  0073  00F1               	movwf	??_interruptRoutine
  1028  0074  3080               	movlw	128
  1029  0075  0271               	subwf	??_interruptRoutine,w
  1030  0076  1D03               	skipz
  1031  0077  287A               	goto	u20_25
  1032  0078  3020               	movlw	32
  1033  0079  027B               	subwf	_i,w
  1034  007A                     u20_25:	
  1035  007A  1C03               	skipc
  1036  007B  2826               	goto	i1l651
  1037  007C                     i1l81:	
  1038  007C  0873               	movf	??_interruptRoutine+2,w
  1039  007D  0020               	movlb	0	; select bank0
  1040  007E  00FF               	movwf	127
  1041  007F  107E               	bcf	126,0	;clear compiler interrupt flag (level 1)
  1042  0080  0009               	retfie
  1043  0081                     __end_of_interruptRoutine:	
  1044                           
  1045                           	psect	text3
  1046  0164                     __ptext3:	
  1047 ;; *************** function _shiftIn *****************
  1048 ;; Defined at:
  1049 ;;		line 108 in file "SPI.c"
  1050 ;; Parameters:    Size  Location     Type
  1051 ;;  data            1    wreg     unsigned char 
  1052 ;; Auto vars:     Size  Location     Type
  1053 ;;  data            1    0[COMMON] unsigned char 
  1054 ;; Return value:  Size  Location     Type
  1055 ;;                  1    wreg      unsigned char 
  1056 ;; Registers used:
  1057 ;;		wreg
  1058 ;; Tracked objects:
  1059 ;;		On entry : 0/0
  1060 ;;		On exit  : 0/0
  1061 ;;		Unchanged: 0/0
  1062 ;; Data sizes:     COMMON   BANK0   BANK1   BANK2   BANK3   BANK4   BANK5   BANK6
  1063 ;;      Params:         0       0       0       0       0       0       0       0
  1064 ;;      Locals:         1       0       0       0       0       0       0       0
  1065 ;;      Temps:          0       0       0       0       0       0       0       0
  1066 ;;      Totals:         1       0       0       0       0       0       0       0
  1067 ;;Total ram usage:        1 bytes
  1068 ;; Hardware stack levels used:    1
  1069 ;; This function calls:
  1070 ;;		Nothing
  1071 ;; This function is called by:
  1072 ;;		_interruptRoutine
  1073 ;; This function uses a non-reentrant model
  1074 ;;
  1075                           
  1076                           
  1077                           ;psect for function _shiftIn
  1078  0164                     _shiftIn:	
  1079                           
  1080                           ;incstack = 0
  1081                           ; Regs used in _shiftIn: [wreg]
  1082                           ;shiftIn@data stored from wreg
  1083  0164  00F0               	movwf	shiftIn@data
  1084                           
  1085                           ;SPI.c: 110: SSP1CON1bits.WCOL = 0;
  1086  0165  0024               	movlb	4	; select bank4
  1087  0166  1395               	bcf	21,7	;volatile
  1088                           
  1089                           ;SPI.c: 111: SSP1BUF = data;
  1090  0167  0870               	movf	shiftIn@data,w
  1091  0168  0091               	movwf	17	;volatile
  1092  0169                     i1l84:	
  1093                           ;SPI.c: 112: while(SSP1STATbits.BF == 0);
  1094                           
  1095  0169  1C14               	btfss	20,0	;volatile
  1096  016A  2969               	goto	i1l84
  1097                           
  1098                           ;SPI.c: 113: return SSP1BUF;
  1099                           ;	Return value of _shiftIn is never used
  1100  016B  0811               	movf	17,w	;volatile
  1101  016C  0008               	return
  1102  016D                     __end_of_shiftIn:	
  1103  007E                     btemp	set	126	;btemp
  1104  007E                     int$flags	set	126
  1105  007E                     wtemp0	set	126


Data Sizes:
    Strings     0
    Constant    0
    Data        0
    BSS         30
    Persistent  0
    Stack       0

Auto Spaces:
    Space          Size  Autos    Used
    COMMON           14      7      13
    BANK0            80      0      24
    BANK1            80      0       0
    BANK2            80      0       0
    BANK3            80      0       0
    BANK4            80      0       0
    BANK5            80      0       0
    BANK6            16      0       0

Pointer List with Targets:

    None.

Critical Paths under _main in COMMON

    None.

Critical Paths under _interruptRoutine in COMMON

    _interruptRoutine->_shiftIn

Critical Paths under _main in BANK0

    None.

Critical Paths under _interruptRoutine in BANK0

    None.

Critical Paths under _main in BANK1

    None.

Critical Paths under _interruptRoutine in BANK1

    None.

Critical Paths under _main in BANK2

    None.

Critical Paths under _interruptRoutine in BANK2

    None.

Critical Paths under _main in BANK3

    None.

Critical Paths under _interruptRoutine in BANK3

    None.

Critical Paths under _main in BANK4

    None.

Critical Paths under _interruptRoutine in BANK4

    None.

Critical Paths under _main in BANK5

    None.

Critical Paths under _interruptRoutine in BANK5

    None.

Critical Paths under _main in BANK6

    None.

Critical Paths under _interruptRoutine in BANK6

    None.

Call Graph Tables:

 ---------------------------------------------------------------------------------
 (Depth) Function   	        Calls       Base Space   Used Autos Params    Refs
 ---------------------------------------------------------------------------------
 (0) _main                                                 3     3      0       0
                                              4 COMMON     3     3      0
                               _init
 ---------------------------------------------------------------------------------
 (1) _init                                                 0     0      0       0
 ---------------------------------------------------------------------------------
 Estimated maximum stack depth 1
 ---------------------------------------------------------------------------------
 (Depth) Function   	        Calls       Base Space   Used Autos Params    Refs
 ---------------------------------------------------------------------------------
 (2) _interruptRoutine                                     3     3      0      15
                                              1 COMMON     3     3      0
                            _shiftIn
 ---------------------------------------------------------------------------------
 (3) _shiftIn                                              1     1      0      15
                                              0 COMMON     1     1      0
 ---------------------------------------------------------------------------------
 Estimated maximum stack depth 3
 ---------------------------------------------------------------------------------

 Call Graph Graphs:

 _main (ROOT)
   _init

 _interruptRoutine (ROOT)
   _shiftIn

 Address spaces:
Name               Size   Autos  Total    Cost      Usage
BIGRAM             1F0      0       0       0        0.0%
EEDATA             100      0       0       0        0.0%
NULL                 0      0       0       0        0.0%
CODE                 0      0       0       0        0.0%
BITCOMMON            E      0       0       1        0.0%
BITSFR0              0      0       0       1        0.0%
SFR0                 0      0       0       1        0.0%
COMMON               E      7       D       2       92.9%
BITSFR1              0      0       0       2        0.0%
SFR1                 0      0       0       2        0.0%
BITSFR2              0      0       0       3        0.0%
SFR2                 0      0       0       3        0.0%
STACK                0      0       0       3        0.0%
BITSFR3              0      0       0       4        0.0%
SFR3                 0      0       0       4        0.0%
ABS                  0      0      25       4        0.0%
BITBANK0            50      0       0       5        0.0%
BITSFR4              0      0       0       5        0.0%
SFR4                 0      0       0       5        0.0%
BANK0               50      0      18       6       30.0%
BITSFR5              0      0       0       6        0.0%
SFR5                 0      0       0       6        0.0%
BITBANK1            50      0       0       7        0.0%
BITSFR6              0      0       0       7        0.0%
SFR6                 0      0       0       7        0.0%
BANK1               50      0       0       8        0.0%
BITSFR7              0      0       0       8        0.0%
SFR7                 0      0       0       8        0.0%
BITBANK2            50      0       0       9        0.0%
BITSFR8              0      0       0       9        0.0%
SFR8                 0      0       0       9        0.0%
BANK2               50      0       0      10        0.0%
BITSFR9              0      0       0      10        0.0%
SFR9                 0      0       0      10        0.0%
BITBANK3            50      0       0      11        0.0%
BITSFR10             0      0       0      11        0.0%
SFR10                0      0       0      11        0.0%
BANK3               50      0       0      12        0.0%
BITSFR11             0      0       0      12        0.0%
SFR11                0      0       0      12        0.0%
BITBANK4            50      0       0      13        0.0%
BITSFR12             0      0       0      13        0.0%
SFR12                0      0       0      13        0.0%
BANK4               50      0       0      14        0.0%
BITSFR13             0      0       0      14        0.0%
SFR13                0      0       0      14        0.0%
BITBANK5            50      0       0      15        0.0%
BITSFR14             0      0       0      15        0.0%
SFR14                0      0       0      15        0.0%
BANK5               50      0       0      16        0.0%
BITSFR15             0      0       0      16        0.0%
SFR15                0      0       0      16        0.0%
BITBANK6            10      0       0      17        0.0%
BITSFR16             0      0       0      17        0.0%
SFR16                0      0       0      17        0.0%
BANK6               10      0       0      18        0.0%
BITSFR17             0      0       0      18        0.0%
SFR17                0      0       0      18        0.0%
BITSFR18             0      0       0      19        0.0%
SFR18                0      0       0      19        0.0%
DATA                 0      0      25      19        0.0%
BITSFR19             0      0       0      20        0.0%
SFR19                0      0       0      20        0.0%
BITSFR20             0      0       0      21        0.0%
SFR20                0      0       0      21        0.0%
BITSFR21             0      0       0      22        0.0%
SFR21                0      0       0      22        0.0%
BITSFR22             0      0       0      23        0.0%
SFR22                0      0       0      23        0.0%
BITSFR23             0      0       0      24        0.0%
SFR23                0      0       0      24        0.0%
BITSFR24             0      0       0      25        0.0%
SFR24                0      0       0      25        0.0%
BITSFR25             0      0       0      26        0.0%
SFR25                0      0       0      26        0.0%
BITSFR26             0      0       0      27        0.0%
SFR26                0      0       0      27        0.0%
BITSFR27             0      0       0      28        0.0%
SFR27                0      0       0      28        0.0%
BITSFR28             0      0       0      29        0.0%
SFR28                0      0       0      29        0.0%
BITSFR29             0      0       0      30        0.0%
SFR29                0      0       0      30        0.0%
BITSFR30             0      0       0      31        0.0%
SFR30                0      0       0      31        0.0%
BITSFR31             0      0       0      32        0.0%
SFR31                0      0       0      32        0.0%


Microchip Technology PIC Macro Assembler V1.44 build -154322312 
Symbol Table                                                                                   Sun Nov 05 14:05:32 2017

                        _h 0077                          _i 007B                __CFG_CP$OFF 0000  
                       l61 0133                         u34 00AB                         u35 00A9  
                       u55 00D1                         u64 00E0                         u65 00DE  
                       u75 00F8                         u85 0107                         u94 0116  
                       u95 0114                __CFG_LVP$ON 0000                        l615 00C4  
                      l625 00FA                        l609 00A0                        l635 0130  
                      l619 00D3                        l629 0109                        u105 012E  
             __CFG_CPD$OFF 0000                        _hex 0020                        wreg 0009  
                     i1l81 007C                       i1l84 0169               __CFG_WRT$OFF 0000  
            __CFG_FCMEN$ON 0000                       _main 0094                       _init 0134  
                     fsr0h 0005                       fsr1h 0007                       indf0 0000  
                     fsr0l 0004                       indf1 0001                       fsr1l 0006  
                     btemp 007E              __CFG_BOREN$ON 0000              __CFG_BORV$LOW 0000  
                     start 0081              __CFG_CSWEN$ON 0000              __CFG_MCLRE$ON 0000  
 __end_of_interruptRoutine 0081                      ?_main 0070                      ?_init 0070  
            __CFG_WDTE$OFF 0000             __CFG_DEBUG$OFF 0000                      i1l651 0026  
                    i1l663 0044                      i1l681 006D                      i1l675 005A  
                    i1l669 004D                      u20_25 007A                      u13_25 0024  
                    u14_25 002C                      u15_25 0039                      u18_25 0058  
                    u19_25 006B                      _state 0079            __end_of_shiftIn 016D  
                    status 0003                      wtemp0 007E            __initialization 0083  
             __end_of_main 0134               __end_of_init 0164                     ??_main 0074  
                   ??_init 0074         __CFG_RSTOSC$HFINT1 0000                     _RC2PPS 0EA2  
                   _OSCFRQ 091F                     _TMR0IF 0085             __CFG_PWRTE$OFF 0000  
           __CFG_STVREN$ON 0000                  ??_shiftIn 0070    __end_of__initialization 0090  
           __pcstackCOMMON 0070                 __pbssBANK0 0020                 __pmaintext 0094  
          __CFG_PPS1WAY$ON 0000                 __pintentry 0004          ?_interruptRoutine 0070  
       ??_interruptRoutine 0071                    _OSCCON1 0919                    _SSP1BUF 0211  
              shiftIn@data 0070                    __ptext1 0134                    __ptext3 0164  
                  _shiftIn 0164                    clrloop0 016E       end_of_initialization 0090  
                _PORTCbits 000E                  _TRISAbits 008C                  _TRISCbits 008E  
         __CFG_FEXTOSC$OFF 0000        start_initialization 0083           __CFG_LPBOREN$OFF 0000  
              __pbssCOMMON 0077                  ___latbits 0001  __size_of_interruptRoutine 007D  
                 ?_shiftIn 0070                  clear_ram0 016D                   _PIE0bits 0090  
                 _PIR0bits 0010                 _ADCON0bits 009D                 _ADCON1bits 009E  
               _ANSELAbits 018C                 _ANSELCbits 018E                 _T0CON0bits 0017  
               _T0CON1bits 0018           __size_of_shiftIn 0009               _SSP1CON1bits 0215  
         _interruptRoutine 0004              __size_of_main 00A0              __size_of_init 0030  
                 int$flags 007E               _SSP1STATbits 0214                 _INTCONbits 000B  
                 intlevel1 0000          __CFG_CLKOUTEN$OFF 0000  
