

Microchip Technology PIC LITE Macro Assembler V1.44 build -154322312 
                                                                                               Sun Nov 05 01:02:44 2017

Microchip Technology Omniscient Code Generator v1.44 (Free mode) build 201709140600
     1                           	processor	16F18324
     2                           	opt	pw 120
     3                           	opt	lm
     4                           	psect	cinit,global,class=CODE,merge=1,delta=2
     5                           	psect	bssCOMMON,global,class=COMMON,space=1,delta=1
     6                           	psect	bssBANK0,global,class=BANK0,space=1,delta=1
     7                           	psect	clrtext,global,class=CODE,delta=2
     8                           	psect	cstackCOMMON,global,class=COMMON,space=1,delta=1
     9                           	psect	cstackBANK0,global,class=BANK0,space=1,delta=1
    10                           	psect	maintext,global,class=CODE,merge=1,split=1,delta=2
    11                           	psect	text1,local,class=CODE,merge=1,delta=2
    12                           	psect	intentry,global,class=CODE,delta=2
    13                           	psect	text3,local,class=CODE,merge=1,delta=2
    14                           	dabs	1,0x7E,2
    15  0000                     
    16                           ; Version 1.44
    17                           ; Generated 14/09/2017 GMT
    18                           ; 
    19                           ; Copyright © 2017, Microchip Technology Inc. and its subsidiaries ("Microchip")
    20                           ; All rights reserved.
    21                           ; 
    22                           ; This software is developed by Microchip Technology Inc. and its subsidiaries ("Microch
      +                          ip").
    23                           ; 
    24                           ; Redistribution and use in source and binary forms, with or without modification, are
    25                           ; permitted provided that the following conditions are met:
    26                           ; 
    27                           ;     1. Redistributions of source code must retain the above copyright notice, this lis
      +                          t of
    28                           ;        conditions and the following disclaimer.
    29                           ; 
    30                           ;     2. Redistributions in binary form must reproduce the above copyright notice, this 
      +                          list
    31                           ;        of conditions and the following disclaimer in the documentation and/or other
    32                           ;        materials provided with the distribution.
    33                           ; 
    34                           ;     3. Microchip's name may not be used to endorse or promote products derived from th
      +                          is
    35                           ;        software without specific prior written permission.
    36                           ; 
    37                           ; THIS SOFTWARE IS PROVIDED BY MICROCHIP "AS IS" AND ANY EXPRESS OR IMPLIED WARRANTIES,
    38                           ; INCLUDING, BUT NOT LIMITED TO, THE IMPLIED WARRANTIES OF MERCHANTABILITY AND FITNESS F
      +                          OR
    39                           ; PURPOSE ARE DISCLAIMED.  IN NO EVENT SHALL MICROCHIP BE LIABLE FOR ANY DIRECT, INDIREC
      +                          T,
    40                           ; INCIDENTAL, SPECIAL, EXEMPLARY, OR CONSEQUENTIAL DAMAGES (INCLUDING BUT NOT LIMITED TO
    41                           ; PROCUREMENT OF SUBSTITUTE GOODS OR SERVICES; LOSS OF USE, DATA OR PROFITS; OR BUSINESS
    42                           ; INTERRUPTION) HOWSOEVER CAUSED AND ON ANY THEORY OF LIABILITY, WHETHER IN CONTRACT, ST
      +                          RICT
    43                           ; LIABILITY, OR TORT (INCLUDING NEGLIGENCE OR OTHERWISE) ARISING IN ANY WAY OUT OF THE U
      +                          SE OF
    44                           ; THIS SOFTWARE, EVEN IF ADVISED OF THE POSSIBILITY OF SUCH DAMAGE.
    45                           ; 
    46                           ; 
    47                           ; Code-generator required, PIC16F18324 Definitions
    48                           ; 
    49                           ; SFR Addresses
    50  0000                     	;# 
    51  0001                     	;# 
    52  0002                     	;# 
    53  0003                     	;# 
    54  0004                     	;# 
    55  0005                     	;# 
    56  0006                     	;# 
    57  0007                     	;# 
    58  0008                     	;# 
    59  0009                     	;# 
    60  000A                     	;# 
    61  000B                     	;# 
    62  000C                     	;# 
    63  000E                     	;# 
    64  0010                     	;# 
    65  0011                     	;# 
    66  0012                     	;# 
    67  0013                     	;# 
    68  0014                     	;# 
    69  0015                     	;# 
    70  0015                     	;# 
    71  0016                     	;# 
    72  0016                     	;# 
    73  0017                     	;# 
    74  0018                     	;# 
    75  0019                     	;# 
    76  0019                     	;# 
    77  001A                     	;# 
    78  001B                     	;# 
    79  001C                     	;# 
    80  001D                     	;# 
    81  001E                     	;# 
    82  001F                     	;# 
    83  008C                     	;# 
    84  008E                     	;# 
    85  0090                     	;# 
    86  0091                     	;# 
    87  0092                     	;# 
    88  0093                     	;# 
    89  0094                     	;# 
    90  0097                     	;# 
    91  009B                     	;# 
    92  009B                     	;# 
    93  009C                     	;# 
    94  009D                     	;# 
    95  009E                     	;# 
    96  009F                     	;# 
    97  010C                     	;# 
    98  010E                     	;# 
    99  0111                     	;# 
   100  0112                     	;# 
   101  0113                     	;# 
   102  0114                     	;# 
   103  0115                     	;# 
   104  0116                     	;# 
   105  0117                     	;# 
   106  0118                     	;# 
   107  0119                     	;# 
   108  018C                     	;# 
   109  018E                     	;# 
   110  0197                     	;# 
   111  0199                     	;# 
   112  0199                     	;# 
   113  0199                     	;# 
   114  019A                     	;# 
   115  019A                     	;# 
   116  019A                     	;# 
   117  019B                     	;# 
   118  019B                     	;# 
   119  019B                     	;# 
   120  019B                     	;# 
   121  019B                     	;# 
   122  019C                     	;# 
   123  019C                     	;# 
   124  019C                     	;# 
   125  019D                     	;# 
   126  019D                     	;# 
   127  019D                     	;# 
   128  019E                     	;# 
   129  019E                     	;# 
   130  019E                     	;# 
   131  019F                     	;# 
   132  019F                     	;# 
   133  019F                     	;# 
   134  019F                     	;# 
   135  019F                     	;# 
   136  020C                     	;# 
   137  020E                     	;# 
   138  0211                     	;# 
   139  0211                     	;# 
   140  0212                     	;# 
   141  0212                     	;# 
   142  0213                     	;# 
   143  0213                     	;# 
   144  0214                     	;# 
   145  0214                     	;# 
   146  0215                     	;# 
   147  0215                     	;# 
   148  0215                     	;# 
   149  0215                     	;# 
   150  0216                     	;# 
   151  0216                     	;# 
   152  0217                     	;# 
   153  0217                     	;# 
   154  028C                     	;# 
   155  028E                     	;# 
   156  0291                     	;# 
   157  0291                     	;# 
   158  0292                     	;# 
   159  0293                     	;# 
   160  0294                     	;# 
   161  0295                     	;# 
   162  0295                     	;# 
   163  0296                     	;# 
   164  0297                     	;# 
   165  0298                     	;# 
   166  029F                     	;# 
   167  030C                     	;# 
   168  030E                     	;# 
   169  0311                     	;# 
   170  0311                     	;# 
   171  0312                     	;# 
   172  0313                     	;# 
   173  0314                     	;# 
   174  0315                     	;# 
   175  0315                     	;# 
   176  0316                     	;# 
   177  0317                     	;# 
   178  0318                     	;# 
   179  038C                     	;# 
   180  038E                     	;# 
   181  0391                     	;# 
   182  0392                     	;# 
   183  0393                     	;# 
   184  0397                     	;# 
   185  0398                     	;# 
   186  0399                     	;# 
   187  039A                     	;# 
   188  039C                     	;# 
   189  039D                     	;# 
   190  039E                     	;# 
   191  039F                     	;# 
   192  0411                     	;# 
   193  0411                     	;# 
   194  0412                     	;# 
   195  0413                     	;# 
   196  0414                     	;# 
   197  0415                     	;# 
   198  0416                     	;# 
   199  0417                     	;# 
   200  0418                     	;# 
   201  0418                     	;# 
   202  0419                     	;# 
   203  041A                     	;# 
   204  041B                     	;# 
   205  041C                     	;# 
   206  041D                     	;# 
   207  041E                     	;# 
   208  041F                     	;# 
   209  0498                     	;# 
   210  0498                     	;# 
   211  0499                     	;# 
   212  049A                     	;# 
   213  049B                     	;# 
   214  049B                     	;# 
   215  049C                     	;# 
   216  049D                     	;# 
   217  049E                     	;# 
   218  049F                     	;# 
   219  0617                     	;# 
   220  0618                     	;# 
   221  0619                     	;# 
   222  0619                     	;# 
   223  061A                     	;# 
   224  061B                     	;# 
   225  061C                     	;# 
   226  061C                     	;# 
   227  061F                     	;# 
   228  0691                     	;# 
   229  0692                     	;# 
   230  0693                     	;# 
   231  0694                     	;# 
   232  0695                     	;# 
   233  0696                     	;# 
   234  0697                     	;# 
   235  0698                     	;# 
   236  0699                     	;# 
   237  0711                     	;# 
   238  0712                     	;# 
   239  0713                     	;# 
   240  0714                     	;# 
   241  0715                     	;# 
   242  0716                     	;# 
   243  0717                     	;# 
   244  0718                     	;# 
   245  0719                     	;# 
   246  0891                     	;# 
   247  0891                     	;# 
   248  0891                     	;# 
   249  0891                     	;# 
   250  0891                     	;# 
   251  0891                     	;# 
   252  0892                     	;# 
   253  0892                     	;# 
   254  0892                     	;# 
   255  0893                     	;# 
   256  0893                     	;# 
   257  0893                     	;# 
   258  0893                     	;# 
   259  0893                     	;# 
   260  0893                     	;# 
   261  0894                     	;# 
   262  0894                     	;# 
   263  0894                     	;# 
   264  0895                     	;# 
   265  0895                     	;# 
   266  0895                     	;# 
   267  0896                     	;# 
   268  0896                     	;# 
   269  0896                     	;# 
   270  089B                     	;# 
   271  0911                     	;# 
   272  0912                     	;# 
   273  0913                     	;# 
   274  0914                     	;# 
   275  0915                     	;# 
   276  0916                     	;# 
   277  0918                     	;# 
   278  0919                     	;# 
   279  091A                     	;# 
   280  091B                     	;# 
   281  091C                     	;# 
   282  091D                     	;# 
   283  091E                     	;# 
   284  091F                     	;# 
   285  0E0F                     	;# 
   286  0E10                     	;# 
   287  0E11                     	;# 
   288  0E12                     	;# 
   289  0E13                     	;# 
   290  0E14                     	;# 
   291  0E15                     	;# 
   292  0E16                     	;# 
   293  0E17                     	;# 
   294  0E18                     	;# 
   295  0E19                     	;# 
   296  0E1A                     	;# 
   297  0E1B                     	;# 
   298  0E1C                     	;# 
   299  0E20                     	;# 
   300  0E21                     	;# 
   301  0E22                     	;# 
   302  0E24                     	;# 
   303  0E25                     	;# 
   304  0E28                     	;# 
   305  0E29                     	;# 
   306  0E2A                     	;# 
   307  0E2B                     	;# 
   308  0E2C                     	;# 
   309  0E2D                     	;# 
   310  0E2E                     	;# 
   311  0E2F                     	;# 
   312  0E90                     	;# 
   313  0E91                     	;# 
   314  0E92                     	;# 
   315  0E94                     	;# 
   316  0E95                     	;# 
   317  0EA0                     	;# 
   318  0EA1                     	;# 
   319  0EA2                     	;# 
   320  0EA3                     	;# 
   321  0EA4                     	;# 
   322  0EA5                     	;# 
   323  0F0F                     	;# 
   324  0F10                     	;# 
   325  0F11                     	;# 
   326  0F12                     	;# 
   327  0F13                     	;# 
   328  0F14                     	;# 
   329  0F15                     	;# 
   330  0F16                     	;# 
   331  0F17                     	;# 
   332  0F18                     	;# 
   333  0F19                     	;# 
   334  0F1A                     	;# 
   335  0F1B                     	;# 
   336  0F1C                     	;# 
   337  0F1D                     	;# 
   338  0F1E                     	;# 
   339  0F1F                     	;# 
   340  0F20                     	;# 
   341  0F21                     	;# 
   342  0F22                     	;# 
   343  0F23                     	;# 
   344  0F24                     	;# 
   345  0F25                     	;# 
   346  0F26                     	;# 
   347  0F27                     	;# 
   348  0F28                     	;# 
   349  0F29                     	;# 
   350  0F2A                     	;# 
   351  0F2B                     	;# 
   352  0F2C                     	;# 
   353  0F2D                     	;# 
   354  0F2E                     	;# 
   355  0F2F                     	;# 
   356  0F30                     	;# 
   357  0F31                     	;# 
   358  0F32                     	;# 
   359  0F33                     	;# 
   360  0F34                     	;# 
   361  0F35                     	;# 
   362  0F36                     	;# 
   363  0F37                     	;# 
   364  0FE4                     	;# 
   365  0FE5                     	;# 
   366  0FE6                     	;# 
   367  0FE7                     	;# 
   368  0FE8                     	;# 
   369  0FE9                     	;# 
   370  0FEA                     	;# 
   371  0FEB                     	;# 
   372  0FED                     	;# 
   373  0FEE                     	;# 
   374  0FEF                     	;# 
   375  0017                     _T0CON0bits	set	23
   376  0018                     _T0CON1bits	set	24
   377  000B                     _INTCONbits	set	11
   378  001E                     _PR2	set	30
   379  0010                     _PIR0bits	set	16
   380  00FA                     _TMR2ON	set	250
   381  0085                     _TMR0IF	set	133
   382  0090                     _PIE0bits	set	144
   383  008E                     _TRISCbits	set	142
   384  008E                     _TRISC	set	142
   385  009E                     _ADCON1bits	set	158
   386  009D                     _ADCON0bits	set	157
   387  008C                     _TRISAbits	set	140
   388  0870                     _LATC0	set	2160
   389  018C                     _ANSELAbits	set	396
   390  0214                     _SSP1STATbits	set	532
   391  0211                     _SSP1BUF	set	529
   392  0215                     _SSP1CON1bits	set	533
   393  061F                     _PWMTMRSbits	set	1567
   394  30CF                     _PWM5EN	set	12495
   395  091F                     _OSCFRQ	set	2335
   396  0919                     _OSCCON1	set	2329
   397  0EA2                     _RC2PPS	set	3746
   398  0EA5                     _RC5PPS	set	3749
   399                           
   400                           ; #config settings
   401  0000                     
   402                           	psect	cinit
   403  0081                     start_initialization:	
   404  0081                     __initialization:	
   405                           
   406                           ; Clear objects allocated to COMMON
   407  0081  01F0               	clrf	__pbssCOMMON& (0+127)
   408  0082  01F1               	clrf	(__pbssCOMMON+1)& (0+127)
   409  0083  01F2               	clrf	(__pbssCOMMON+2)& (0+127)
   410  0084  01F3               	clrf	(__pbssCOMMON+3)& (0+127)
   411                           
   412                           ; Clear objects allocated to BANK0
   413  0085  3020               	movlw	low __pbssBANK0
   414  0086  0084               	movwf	4
   415  0087  3000               	movlw	high __pbssBANK0
   416  0088  0085               	movwf	5
   417  0089  301A               	movlw	26
   418  008A  3181  2194         	fcall	clear_ram0
   419  008C                     end_of_initialization:	
   420                           ;End of C runtime variable initialization code
   421                           
   422  008C                     __end_of__initialization:	
   423  008C  107E               	bcf	int$flags,0	;clear compiler interrupt flag (level 1)
   424  008D  0020               	movlb	0
   425  008E  3180  2890         	ljmp	_main	;jump to C main() function
   426                           
   427                           	psect	bssCOMMON
   428  0070                     __pbssCOMMON:	
   429  0070                     _h:	
   430  0070                     	ds	2
   431  0072                     _i:	
   432  0072                     	ds	2
   433                           
   434                           	psect	bssBANK0
   435  0020                     __pbssBANK0:	
   436  0020                     _hex:	
   437  0020                     	ds	24
   438  0038                     _state:	
   439  0038                     	ds	2
   440                           
   441                           	psect	clrtext
   442  0194                     clear_ram0:	
   443                           ;	Called with FSR0 containing the base address, and
   444                           ;	WREG with the size to clear
   445                           
   446  0194  0064               	clrwdt	;clear the watchdog before getting into this loop
   447  0195                     clrloop0:	
   448  0195  0180               	clrf	0	;clear RAM location pointed to by FSR
   449  0196  3101               	addfsr 0,1
   450  0197  0B89               	decfsz	9,f	;Have we reached the end of clearing yet?
   451  0198  2995               	goto	clrloop0	;have we reached the end yet?
   452  0199  3400               	retlw	0	;all done for this memory range, return
   453                           
   454                           	psect	cstackCOMMON
   455  0074                     __pcstackCOMMON:	
   456  0074                     ?_init:	
   457  0074                     ?_shiftIn:	
   458                           ; 1 bytes @ 0x0
   459                           
   460  0074                     ??_shiftIn:	
   461                           ; 1 bytes @ 0x0
   462                           
   463  0074                     ?_main:	
   464                           ; 1 bytes @ 0x0
   465                           
   466  0074                     ?_interruptRoutine:	
   467                           ; 1 bytes @ 0x0
   468                           
   469  0074                     shiftIn@data:	
   470                           ; 1 bytes @ 0x0
   471                           
   472                           
   473                           ; 1 bytes @ 0x0
   474  0074                     	ds	1
   475  0075                     ??_interruptRoutine:	
   476                           
   477                           ; 1 bytes @ 0x1
   478  0075                     	ds	3
   479  0078                     ??_init:	
   480                           
   481                           	psect	cstackBANK0
   482  003A                     __pcstackBANK0:	
   483                           ; 1 bytes @ 0x4
   484                           
   485  003A                     ??_main:	
   486                           
   487                           ; 1 bytes @ 0x0
   488  003A                     	ds	5
   489                           
   490                           	psect	maintext
   491  0090                     __pmaintext:	
   492 ;;
   493 ;;Main: autosize = 0, tempsize = 5, incstack = 0, save=0
   494 ;;
   495 ;; *************** function _main *****************
   496 ;; Defined at:
   497 ;;		line 38 in file "SPI.c"
   498 ;; Parameters:    Size  Location     Type
   499 ;;		None
   500 ;; Auto vars:     Size  Location     Type
   501 ;;		None
   502 ;; Return value:  Size  Location     Type
   503 ;;                  1    wreg      void 
   504 ;; Registers used:
   505 ;;		wreg, fsr1l, fsr1h, status,2, status,0, pclath, cstack
   506 ;; Tracked objects:
   507 ;;		On entry : B1F/0
   508 ;;		On exit  : 0/0
   509 ;;		Unchanged: 0/0
   510 ;; Data sizes:     COMMON   BANK0   BANK1   BANK2   BANK3   BANK4   BANK5   BANK6
   511 ;;      Params:         0       0       0       0       0       0       0       0
   512 ;;      Locals:         0       0       0       0       0       0       0       0
   513 ;;      Temps:          0       5       0       0       0       0       0       0
   514 ;;      Totals:         0       5       0       0       0       0       0       0
   515 ;;Total ram usage:        5 bytes
   516 ;; Hardware stack levels required when called:    3
   517 ;; This function calls:
   518 ;;		_init
   519 ;; This function is called by:
   520 ;;		Startup code after reset
   521 ;; This function uses a non-reentrant model
   522 ;;
   523                           
   524                           
   525                           ;psect for function _main
   526  0090                     _main:	
   527                           
   528                           ;SPI.c: 41: for(i = 0; i < 8; i++) {
   529                           
   530                           ;incstack = 0
   531                           ; Regs used in _main: [wreg+fsr1l+fsr1h+status,2+status,0+pclath+cstack]
   532  0090  01F2               	clrf	_i
   533  0091  01F3               	clrf	_i+1
   534  0092  0873               	movf	_i+1,w
   535  0093  3A80               	xorlw	128
   536  0094  0020               	movlb	0	; select bank0
   537  0095  00BA               	movwf	??_main
   538  0096  3080               	movlw	128
   539  0097  023A               	subwf	??_main,w
   540  0098  3008               	movlw	8
   541  0099  1903               	btfsc	3,2
   542  009A  0272               	subwf	_i,w
   543  009B  1803               	btfsc	3,0
   544  009C  28C8               	goto	l774
   545  009D                     l768:	
   546                           
   547                           ;SPI.c: 42: hex[i] = 1 & (0xFFFFFF >> 15 - i);
   548  009D  30FF               	movlw	255
   549  009E  0020               	movlb	0	; select bank0
   550  009F  00BA               	movwf	??_main
   551  00A0  30FF               	movlw	255
   552  00A1  00BB               	movwf	??_main+1
   553  00A2  30FF               	movlw	255
   554  00A3  00BC               	movwf	??_main+2
   555  00A4  3000               	movlw	0
   556  00A5  00BD               	movwf	??_main+3
   557  00A6  0372               	decf	_i,w
   558  00A7  3AFF               	xorlw	255
   559  00A8  3E0F               	addlw	15
   560  00A9  0A89               	incf	9,f
   561  00AA  28AF               	goto	u310
   562  00AB                     u315:	
   563  00AB  37BD               	asrf	??_main+3,f
   564  00AC  0CBC               	rrf	??_main+2,f
   565  00AD  0CBB               	rrf	??_main+1,f
   566  00AE  0CBA               	rrf	??_main,f
   567  00AF                     u310:	
   568  00AF  0B89               	decfsz	9,f
   569  00B0  28AB               	goto	u315
   570  00B1  083A               	movf	??_main,w
   571  00B2  3901               	andlw	1
   572  00B3  00BE               	movwf	??_main+4
   573  00B4  0872               	movf	_i,w
   574  00B5  3E20               	addlw	(low (_hex| 0))& (0+255)
   575  00B6  0086               	movwf	6
   576  00B7  0187               	clrf	7
   577  00B8  083E               	movf	??_main+4,w
   578  00B9  0081               	movwf	1
   579  00BA  3001               	movlw	1
   580  00BB  07F2               	addwf	_i,f
   581  00BC  3000               	movlw	0
   582  00BD  3DF3               	addwfc	_i+1,f
   583  00BE  0873               	movf	_i+1,w
   584  00BF  3A80               	xorlw	128
   585  00C0  00BA               	movwf	??_main
   586  00C1  3080               	movlw	128
   587  00C2  023A               	subwf	??_main,w
   588  00C3  3008               	movlw	8
   589  00C4  1903               	btfsc	3,2
   590  00C5  0272               	subwf	_i,w
   591  00C6  1C03               	skipc
   592  00C7  289D               	goto	l768
   593  00C8                     l774:	
   594                           
   595                           ;SPI.c: 43: }
   596                           ;SPI.c: 45: for(i = 8; i < 16; i++) {
   597  00C8  3008               	movlw	8
   598  00C9  00F2               	movwf	_i
   599  00CA  3000               	movlw	0
   600  00CB  00F3               	movwf	_i+1
   601  00CC  0873               	movf	_i+1,w
   602  00CD  3A80               	xorlw	128
   603  00CE  0020               	movlb	0	; select bank0
   604  00CF  00BA               	movwf	??_main
   605  00D0  3080               	movlw	128
   606  00D1  023A               	subwf	??_main,w
   607  00D2  1D03               	skipz
   608  00D3  28D6               	goto	u335
   609  00D4  3010               	movlw	16
   610  00D5  0272               	subwf	_i,w
   611  00D6                     u335:	
   612  00D6  1803               	btfsc	3,0
   613  00D7  2906               	goto	l784
   614  00D8                     l778:	
   615                           
   616                           ;SPI.c: 46: hex[i] = 1 & (0xFFFFFF >> 23 - (i - 8));
   617  00D8  30FF               	movlw	255
   618  00D9  0020               	movlb	0	; select bank0
   619  00DA  00BA               	movwf	??_main
   620  00DB  30FF               	movlw	255
   621  00DC  00BB               	movwf	??_main+1
   622  00DD  30FF               	movlw	255
   623  00DE  00BC               	movwf	??_main+2
   624  00DF  3000               	movlw	0
   625  00E0  00BD               	movwf	??_main+3
   626  00E1  0872               	movf	_i,w
   627  00E2  3EF8               	addlw	-8
   628  00E3  3AFF               	xorlw	255
   629  00E4  3E01               	addlw	1
   630  00E5  3E17               	addlw	23
   631  00E6  0A89               	incf	9,f
   632  00E7  28EC               	goto	u340
   633  00E8                     u345:	
   634  00E8  37BD               	asrf	??_main+3,f
   635  00E9  0CBC               	rrf	??_main+2,f
   636  00EA  0CBB               	rrf	??_main+1,f
   637  00EB  0CBA               	rrf	??_main,f
   638  00EC                     u340:	
   639  00EC  0B89               	decfsz	9,f
   640  00ED  28E8               	goto	u345
   641  00EE  083A               	movf	??_main,w
   642  00EF  3901               	andlw	1
   643  00F0  00BE               	movwf	??_main+4
   644  00F1  0872               	movf	_i,w
   645  00F2  3E20               	addlw	(low (_hex| 0))& (0+255)
   646  00F3  0086               	movwf	6
   647  00F4  0187               	clrf	7
   648  00F5  083E               	movf	??_main+4,w
   649  00F6  0081               	movwf	1
   650  00F7  3001               	movlw	1
   651  00F8  07F2               	addwf	_i,f
   652  00F9  3000               	movlw	0
   653  00FA  3DF3               	addwfc	_i+1,f
   654  00FB  0873               	movf	_i+1,w
   655  00FC  3A80               	xorlw	128
   656  00FD  00BA               	movwf	??_main
   657  00FE  3080               	movlw	128
   658  00FF  023A               	subwf	??_main,w
   659  0100  1D03               	skipz
   660  0101  2904               	goto	u355
   661  0102  3010               	movlw	16
   662  0103  0272               	subwf	_i,w
   663  0104                     u355:	
   664  0104  1C03               	skipc
   665  0105  28D8               	goto	l778
   666  0106                     l784:	
   667                           
   668                           ;SPI.c: 47: }
   669                           ;SPI.c: 49: for(i = 16; i < 24; i++) {
   670  0106  3010               	movlw	16
   671  0107  00F2               	movwf	_i
   672  0108  3000               	movlw	0
   673  0109  00F3               	movwf	_i+1
   674  010A  0873               	movf	_i+1,w
   675  010B  3A80               	xorlw	128
   676  010C  0020               	movlb	0	; select bank0
   677  010D  00BA               	movwf	??_main
   678  010E  3080               	movlw	128
   679  010F  023A               	subwf	??_main,w
   680  0110  1D03               	skipz
   681  0111  2914               	goto	u365
   682  0112  3018               	movlw	24
   683  0113  0272               	subwf	_i,w
   684  0114                     u365:	
   685  0114  1803               	btfsc	3,0
   686  0115  2944               	goto	l794
   687  0116                     l788:	
   688                           
   689                           ;SPI.c: 50: hex[i] = 1 & ((0xFFFFFF >> 7 - (i - 16)));
   690  0116  30FF               	movlw	255
   691  0117  0020               	movlb	0	; select bank0
   692  0118  00BA               	movwf	??_main
   693  0119  30FF               	movlw	255
   694  011A  00BB               	movwf	??_main+1
   695  011B  30FF               	movlw	255
   696  011C  00BC               	movwf	??_main+2
   697  011D  3000               	movlw	0
   698  011E  00BD               	movwf	??_main+3
   699  011F  0872               	movf	_i,w
   700  0120  3EF0               	addlw	-16
   701  0121  3AFF               	xorlw	255
   702  0122  3E01               	addlw	1
   703  0123  3E07               	addlw	7
   704  0124  0A89               	incf	9,f
   705  0125  292A               	goto	u370
   706  0126                     u375:	
   707  0126  37BD               	asrf	??_main+3,f
   708  0127  0CBC               	rrf	??_main+2,f
   709  0128  0CBB               	rrf	??_main+1,f
   710  0129  0CBA               	rrf	??_main,f
   711  012A                     u370:	
   712  012A  0B89               	decfsz	9,f
   713  012B  2926               	goto	u375
   714  012C  083A               	movf	??_main,w
   715  012D  3901               	andlw	1
   716  012E  00BE               	movwf	??_main+4
   717  012F  0872               	movf	_i,w
   718  0130  3E20               	addlw	(low (_hex| 0))& (0+255)
   719  0131  0086               	movwf	6
   720  0132  0187               	clrf	7
   721  0133  083E               	movf	??_main+4,w
   722  0134  0081               	movwf	1
   723  0135  3001               	movlw	1
   724  0136  07F2               	addwf	_i,f
   725  0137  3000               	movlw	0
   726  0138  3DF3               	addwfc	_i+1,f
   727  0139  0873               	movf	_i+1,w
   728  013A  3A80               	xorlw	128
   729  013B  00BA               	movwf	??_main
   730  013C  3080               	movlw	128
   731  013D  023A               	subwf	??_main,w
   732  013E  1D03               	skipz
   733  013F  2942               	goto	u385
   734  0140  3018               	movlw	24
   735  0141  0272               	subwf	_i,w
   736  0142                     u385:	
   737  0142  1C03               	skipc
   738  0143  2916               	goto	l788
   739  0144                     l794:	
   740                           
   741                           ;SPI.c: 51: }
   742                           ;SPI.c: 52: init();
   743  0144  3181  2148  3180   	fcall	_init
   744  0147                     l71:	
   745                           ;SPI.c: 53: while (1)
   746                           
   747                           
   748                           ;SPI.c: 54: {
   749  0147  2947               	goto	l71
   750  0148                     __end_of_main:	
   751                           
   752                           	psect	text1
   753  0148                     __ptext1:	
   754 ;; *************** function _init *****************
   755 ;; Defined at:
   756 ;;		line 130 in file "SPI.c"
   757 ;; Parameters:    Size  Location     Type
   758 ;;		None
   759 ;; Auto vars:     Size  Location     Type
   760 ;;		None
   761 ;; Return value:  Size  Location     Type
   762 ;;                  1    wreg      void 
   763 ;; Registers used:
   764 ;;		wreg, status,2, status,0
   765 ;; Tracked objects:
   766 ;;		On entry : 0/0
   767 ;;		On exit  : 0/0
   768 ;;		Unchanged: 0/0
   769 ;; Data sizes:     COMMON   BANK0   BANK1   BANK2   BANK3   BANK4   BANK5   BANK6
   770 ;;      Params:         0       0       0       0       0       0       0       0
   771 ;;      Locals:         0       0       0       0       0       0       0       0
   772 ;;      Temps:          0       0       0       0       0       0       0       0
   773 ;;      Totals:         0       0       0       0       0       0       0       0
   774 ;;Total ram usage:        0 bytes
   775 ;; Hardware stack levels used:    1
   776 ;; Hardware stack levels required when called:    2
   777 ;; This function calls:
   778 ;;		Nothing
   779 ;; This function is called by:
   780 ;;		_main
   781 ;; This function uses a non-reentrant model
   782 ;;
   783                           
   784                           
   785                           ;psect for function _init
   786  0148                     _init:	
   787                           
   788                           ;SPI.c: 141: OSCCON1 = 0x00;
   789                           
   790                           ;incstack = 0
   791                           ; Regs used in _init: [wreg+status,2+status,0]
   792  0148  0032               	movlb	18	; select bank18
   793  0149  0199               	clrf	25	;volatile
   794                           
   795                           ;SPI.c: 142: OSCFRQ = 0x04;
   796  014A  3004               	movlw	4
   797  014B  009F               	movwf	31	;volatile
   798                           
   799                           ;SPI.c: 145: TRISAbits.TRISA2 = 1;
   800  014C  0021               	movlb	1	; select bank1
   801  014D  150C               	bsf	12,2	;volatile
   802                           
   803                           ;SPI.c: 146: ANSELAbits.ANSA2 = 1;
   804  014E  0023               	movlb	3	; select bank3
   805  014F  150C               	bsf	12,2	;volatile
   806                           
   807                           ;SPI.c: 149: ADCON0bits.CHS = 0b000010;
   808  0150  0021               	movlb	1	; select bank1
   809  0151  081D               	movf	29,w	;volatile
   810  0152  3903               	andlw	-253
   811  0153  3808               	iorlw	8
   812  0154  009D               	movwf	29	;volatile
   813                           
   814                           ;SPI.c: 150: ADCON1bits.ADFM = 0;
   815  0155  139E               	bcf	30,7	;volatile
   816                           
   817                           ;SPI.c: 151: ADCON1bits.ADCS = 0b101;
   818  0156  081E               	movf	30,w	;volatile
   819  0157  398F               	andlw	-113
   820  0158  3850               	iorlw	80
   821  0159  009E               	movwf	30	;volatile
   822                           
   823                           ;SPI.c: 152: ADCON0bits.ADON = 1;
   824  015A  141D               	bsf	29,0	;volatile
   825                           
   826                           ;SPI.c: 155: TRISC = 0xFF;
   827  015B  30FF               	movlw	255
   828  015C  008E               	movwf	14	;volatile
   829                           
   830                           ;SPI.c: 156: TRISCbits.TRISC5 = 0;
   831  015D  128E               	bcf	14,5	;volatile
   832                           
   833                           ;SPI.c: 157: RC5PPS = 0b00010;
   834  015E  3002               	movlw	2
   835  015F  003D               	movlb	29	; select bank29
   836  0160  00A5               	movwf	37	;volatile
   837                           
   838                           ;SPI.c: 159: PWM5EN = 1;
   839  0161  002C               	movlb	12	; select bank12
   840  0162  1799               	bsf	25,7	;volatile
   841                           
   842                           ;SPI.c: 162: PR2 = 0xff;
   843  0163  30FF               	movlw	255
   844  0164  0020               	movlb	0	; select bank0
   845  0165  009E               	movwf	30	;volatile
   846                           
   847                           ;SPI.c: 163: PWMTMRSbits.P5TSEL = 0b01;
   848  0166  002C               	movlb	12	; select bank12
   849  0167  081F               	movf	31,w	;volatile
   850  0168  39FC               	andlw	-4
   851  0169  3801               	iorlw	1
   852  016A  009F               	movwf	31	;volatile
   853                           
   854                           ;SPI.c: 164: TMR2ON = 1;
   855  016B  0020               	movlb	0	; select bank0
   856  016C  151F               	bsf	31,2	;volatile
   857                           
   858                           ;SPI.c: 167: INTCONbits.GIE = 1;
   859  016D  178B               	bsf	11,7	;volatile
   860                           
   861                           ;SPI.c: 168: INTCONbits.PEIE = 1;
   862  016E  170B               	bsf	11,6	;volatile
   863                           
   864                           ;SPI.c: 169: PIE0bits.TMR0IE = 1;
   865  016F  0021               	movlb	1	; select bank1
   866  0170  1690               	bsf	16,5	;volatile
   867                           
   868                           ;SPI.c: 172: T0CON1bits.T0CS = 0b010;
   869  0171  0020               	movlb	0	; select bank0
   870  0172  0818               	movf	24,w	;volatile
   871  0173  391F               	andlw	-225
   872  0174  3840               	iorlw	64
   873  0175  0098               	movwf	24	;volatile
   874                           
   875                           ;SPI.c: 173: T0CON1bits.T0CKPS = 0xB;
   876  0176  0818               	movf	24,w	;volatile
   877  0177  39F0               	andlw	-16
   878  0178  380B               	iorlw	11
   879  0179  0098               	movwf	24	;volatile
   880                           
   881                           ;SPI.c: 174: T0CON0bits.T016BIT = 0;
   882  017A  1217               	bcf	23,4	;volatile
   883                           
   884                           ;SPI.c: 175: T0CON0bits.T0EN = 1;
   885  017B  1797               	bsf	23,7	;volatile
   886                           
   887                           ;SPI.c: 178: SSP1CON1bits.SSPEN = 1;
   888  017C  0024               	movlb	4	; select bank4
   889  017D  1695               	bsf	21,5	;volatile
   890                           
   891                           ;SPI.c: 179: SSP1CON1bits.CKP = 1;
   892  017E  1615               	bsf	21,4	;volatile
   893                           
   894                           ;SPI.c: 180: SSP1CON1bits.SSPM = 0x0;
   895  017F  30F0               	movlw	-16
   896  0180  0595               	andwf	21,f	;volatile
   897                           
   898                           ;SPI.c: 181: TRISCbits.TRISC0 = 0; LATC0 = 1;
   899  0181  0021               	movlb	1	; select bank1
   900  0182  100E               	bcf	14,0	;volatile
   901  0183  0022               	movlb	2	; select bank2
   902  0184  140E               	bsf	14,0	;volatile
   903                           
   904                           ;SPI.c: 182: TRISCbits.TRISC2 = 0; RC2PPS = 0b11001;
   905  0185  0021               	movlb	1	; select bank1
   906  0186  110E               	bcf	14,2	;volatile
   907  0187  3019               	movlw	25
   908  0188  003D               	movlb	29	; select bank29
   909  0189  00A2               	movwf	34	;volatile
   910  018A  0008               	return
   911  018B                     __end_of_init:	
   912                           
   913                           	psect	intentry
   914  0004                     __pintentry:	
   915 ;; *************** function _interruptRoutine *****************
   916 ;; Defined at:
   917 ;;		line 61 in file "SPI.c"
   918 ;; Parameters:    Size  Location     Type
   919 ;;		None
   920 ;; Auto vars:     Size  Location     Type
   921 ;;		None
   922 ;; Return value:  Size  Location     Type
   923 ;;                  1    wreg      void 
   924 ;; Registers used:
   925 ;;		wreg, fsr1l, fsr1h, status,2, status,0, pclath, cstack
   926 ;; Tracked objects:
   927 ;;		On entry : 0/0
   928 ;;		On exit  : 0/0
   929 ;;		Unchanged: 0/0
   930 ;; Data sizes:     COMMON   BANK0   BANK1   BANK2   BANK3   BANK4   BANK5   BANK6
   931 ;;      Params:         0       0       0       0       0       0       0       0
   932 ;;      Locals:         0       0       0       0       0       0       0       0
   933 ;;      Temps:          3       0       0       0       0       0       0       0
   934 ;;      Totals:         3       0       0       0       0       0       0       0
   935 ;;Total ram usage:        3 bytes
   936 ;; Hardware stack levels used:    1
   937 ;; Hardware stack levels required when called:    1
   938 ;; This function calls:
   939 ;;		_shiftIn
   940 ;; This function is called by:
   941 ;;		Interrupt level 1
   942 ;; This function uses a non-reentrant model
   943 ;;
   944                           
   945  0004                     _interruptRoutine:	
   946                           
   947                           ;incstack = 0
   948  0004  147E               	bsf	126,0	;set compiler interrupt flag (level 1)
   949                           
   950                           ; Regs used in _interruptRoutine: [wreg+fsr1l+fsr1h+status,2+status,0+pclath+cstack]
   951  0005  3180               	pagesel	$
   952  0006  0020               	movlb	0	; select bank0
   953  0007  087F               	movf	127,w
   954  0008  00F7               	movwf	??_interruptRoutine+2
   955                           
   956                           ;SPI.c: 62: if(PIR0bits.TMR0IF) {
   957  0009  1E90               	btfss	16,5	;volatile
   958  000A  287A               	goto	i1l90
   959                           
   960                           ;SPI.c: 63: TMR0IF = 0;
   961  000B  1290               	bcf	16,5	;volatile
   962                           
   963                           ;SPI.c: 93: state = (state + 1) % 8;
   964  000C  0838               	movf	_state,w
   965  000D  3E01               	addlw	1
   966  000E  00F5               	movwf	??_interruptRoutine
   967  000F  3000               	movlw	0
   968  0010  3D39               	addwfc	_state+1,w
   969  0011  00F6               	movwf	??_interruptRoutine+1
   970  0012  3007               	movlw	7
   971  0013  0575               	andwf	??_interruptRoutine,w
   972  0014  00B8               	movwf	_state
   973  0015  3000               	movlw	0
   974  0016  0576               	andwf	??_interruptRoutine+1,w
   975  0017  00B9               	movwf	_state+1
   976                           
   977                           ;SPI.c: 94: for(i = 0; i < 8; i++){
   978  0018  01F2               	clrf	_i
   979  0019  01F3               	clrf	_i+1
   980  001A  0873               	movf	_i+1,w
   981  001B  3A80               	xorlw	128
   982  001C  00F5               	movwf	??_interruptRoutine
   983  001D  3080               	movlw	128
   984  001E  0275               	subwf	??_interruptRoutine,w
   985  001F  3008               	movlw	8
   986  0020  1903               	btfsc	3,2
   987  0021  0272               	subwf	_i,w
   988  0022  1803               	btfsc	3,0
   989  0023  287A               	goto	i1l90
   990  0024                     i1l730:	
   991                           
   992                           ;SPI.c: 95: if(i == state) {
   993  0024  0020               	movlb	0	; select bank0
   994  0025  0839               	movf	_state+1,w
   995  0026  0673               	xorwf	_i+1,w
   996  0027  1D03               	skipz
   997  0028  282B               	goto	u23_25
   998  0029  0838               	movf	_state,w
   999  002A  0672               	xorwf	_i,w
  1000  002B                     u23_25:	
  1001  002B  1D03               	skipz
  1002  002C  284C               	goto	i1l748
  1003                           
  1004                           ;SPI.c: 96: for(h = 0; h < 24; h++)
  1005  002D  01F0               	clrf	_h
  1006  002E  01F1               	clrf	_h+1
  1007  002F                     L2:	
  1008  002F  0871               	movf	_h+1,w
  1009  0030  3A80               	xorlw	128
  1010  0031  00F5               	movwf	??_interruptRoutine
  1011  0032  3080               	movlw	128
  1012  0033  0275               	subwf	??_interruptRoutine,w
  1013  0034  1D03               	skipz
  1014  0035  2838               	goto	u24_25
  1015  0036  3018               	movlw	24
  1016  0037  0270               	subwf	_h,w
  1017  0038                     u24_25:	
  1018  0038  1803               	btfsc	3,0
  1019  0039  286C               	goto	i1l760
  1020                           
  1021                           ;SPI.c: 97: if(hex[h]) shiftIn(0xE0);
  1022  003A  0870               	movf	_h,w
  1023  003B  3E20               	addlw	(low (_hex| 0))& (0+255)
  1024  003C  0086               	movwf	6
  1025  003D  0187               	clrf	7
  1026  003E  0801               	movf	1,w
  1027  003F  1903               	btfsc	3,2
  1028  0040  2843               	goto	i1l742
  1029  0041  30E0               	movlw	224
  1030  0042  2844               	goto	L1
  1031  0043                     i1l742:	
  1032                           
  1033                           ;SPI.c: 98: else shiftIn(0x80);
  1034  0043  3080               	movlw	128
  1035  0044                     L1:	
  1036  0044  3181  218B  3180   	fcall	_shiftIn
  1037  0047  3001               	movlw	1
  1038  0048  07F0               	addwf	_h,f
  1039  0049  3000               	movlw	0
  1040  004A  3DF1               	addwfc	_h+1,f
  1041  004B  282F               	goto	L2
  1042  004C                     i1l748:	
  1043                           ;SPI.c: 99: }
  1044                           
  1045                           
  1046                           ;SPI.c: 100: else for(h = 0; h < 24; h++) shiftIn(0x80);
  1047  004C  01F0               	clrf	_h
  1048  004D  01F1               	clrf	_h+1
  1049  004E  0871               	movf	_h+1,w
  1050  004F  3A80               	xorlw	128
  1051  0050  00F5               	movwf	??_interruptRoutine
  1052  0051  3080               	movlw	128
  1053  0052  0275               	subwf	??_interruptRoutine,w
  1054  0053  1D03               	skipz
  1055  0054  2857               	goto	u27_25
  1056  0055  3018               	movlw	24
  1057  0056  0270               	subwf	_h,w
  1058  0057                     u27_25:	
  1059  0057  1803               	btfsc	3,0
  1060  0058  286C               	goto	i1l760
  1061  0059                     i1l754:	
  1062  0059  3080               	movlw	128
  1063  005A  3181  218B  3180   	fcall	_shiftIn
  1064  005D  3001               	movlw	1
  1065  005E  07F0               	addwf	_h,f
  1066  005F  3000               	movlw	0
  1067  0060  3DF1               	addwfc	_h+1,f
  1068  0061  0871               	movf	_h+1,w
  1069  0062  3A80               	xorlw	128
  1070  0063  00F5               	movwf	??_interruptRoutine
  1071  0064  3080               	movlw	128
  1072  0065  0275               	subwf	??_interruptRoutine,w
  1073  0066  1D03               	skipz
  1074  0067  286A               	goto	u28_25
  1075  0068  3018               	movlw	24
  1076  0069  0270               	subwf	_h,w
  1077  006A                     u28_25:	
  1078  006A  1C03               	skipc
  1079  006B  2859               	goto	i1l754
  1080  006C                     i1l760:	
  1081  006C  3001               	movlw	1
  1082  006D  07F2               	addwf	_i,f
  1083  006E  3000               	movlw	0
  1084  006F  3DF3               	addwfc	_i+1,f
  1085  0070  0873               	movf	_i+1,w
  1086  0071  3A80               	xorlw	128
  1087  0072  00F5               	movwf	??_interruptRoutine
  1088  0073  3080               	movlw	128
  1089  0074  0275               	subwf	??_interruptRoutine,w
  1090  0075  3008               	movlw	8
  1091  0076  1903               	btfsc	3,2
  1092  0077  0272               	subwf	_i,w
  1093  0078  1C03               	skipc
  1094  0079  2824               	goto	i1l730
  1095  007A                     i1l90:	
  1096  007A  0877               	movf	??_interruptRoutine+2,w
  1097  007B  0020               	movlb	0	; select bank0
  1098  007C  00FF               	movwf	127
  1099  007D  107E               	bcf	126,0	;clear compiler interrupt flag (level 1)
  1100  007E  0009               	retfie
  1101  007F                     __end_of_interruptRoutine:	
  1102                           
  1103                           	psect	text3
  1104  018B                     __ptext3:	
  1105 ;; *************** function _shiftIn *****************
  1106 ;; Defined at:
  1107 ;;		line 109 in file "SPI.c"
  1108 ;; Parameters:    Size  Location     Type
  1109 ;;  data            1    wreg     unsigned char 
  1110 ;; Auto vars:     Size  Location     Type
  1111 ;;  data            1    0[COMMON] unsigned char 
  1112 ;; Return value:  Size  Location     Type
  1113 ;;                  1    wreg      unsigned char 
  1114 ;; Registers used:
  1115 ;;		wreg
  1116 ;; Tracked objects:
  1117 ;;		On entry : 0/0
  1118 ;;		On exit  : 0/0
  1119 ;;		Unchanged: 0/0
  1120 ;; Data sizes:     COMMON   BANK0   BANK1   BANK2   BANK3   BANK4   BANK5   BANK6
  1121 ;;      Params:         0       0       0       0       0       0       0       0
  1122 ;;      Locals:         1       0       0       0       0       0       0       0
  1123 ;;      Temps:          0       0       0       0       0       0       0       0
  1124 ;;      Totals:         1       0       0       0       0       0       0       0
  1125 ;;Total ram usage:        1 bytes
  1126 ;; Hardware stack levels used:    1
  1127 ;; This function calls:
  1128 ;;		Nothing
  1129 ;; This function is called by:
  1130 ;;		_interruptRoutine
  1131 ;; This function uses a non-reentrant model
  1132 ;;
  1133                           
  1134                           
  1135                           ;psect for function _shiftIn
  1136  018B                     _shiftIn:	
  1137                           
  1138                           ;incstack = 0
  1139                           ; Regs used in _shiftIn: [wreg]
  1140                           ;shiftIn@data stored from wreg
  1141  018B  00F4               	movwf	shiftIn@data
  1142                           
  1143                           ;SPI.c: 111: SSP1CON1bits.WCOL = 0;
  1144  018C  0024               	movlb	4	; select bank4
  1145  018D  1395               	bcf	21,7	;volatile
  1146                           
  1147                           ;SPI.c: 112: SSP1BUF = data;
  1148  018E  0874               	movf	shiftIn@data,w
  1149  018F  0091               	movwf	17	;volatile
  1150  0190                     i1l93:	
  1151                           ;SPI.c: 113: while(SSP1STATbits.BF == 0);
  1152                           
  1153  0190  1C14               	btfss	20,0	;volatile
  1154  0191  2990               	goto	i1l93
  1155                           
  1156                           ;SPI.c: 114: return SSP1BUF;
  1157                           ;	Return value of _shiftIn is never used
  1158  0192  0811               	movf	17,w	;volatile
  1159  0193  0008               	return
  1160  0194                     __end_of_shiftIn:	
  1161  007E                     btemp	set	126	;btemp
  1162  007E                     int$flags	set	126
  1163  007E                     wtemp0	set	126


Data Sizes:
    Strings     0
    Constant    0
    Data        0
    BSS         30
    Persistent  0
    Stack       0

Auto Spaces:
    Space          Size  Autos    Used
    COMMON           14      4       8
    BANK0            80      5      31
    BANK1            80      0       0
    BANK2            80      0       0
    BANK3            80      0       0
    BANK4            80      0       0
    BANK5            80      0       0
    BANK6            16      0       0

Pointer List with Targets:

    None.

Critical Paths under _main in COMMON

    None.

Critical Paths under _interruptRoutine in COMMON

    _interruptRoutine->_shiftIn

Critical Paths under _main in BANK0

    None.

Critical Paths under _interruptRoutine in BANK0

    None.

Critical Paths under _main in BANK1

    None.

Critical Paths under _interruptRoutine in BANK1

    None.

Critical Paths under _main in BANK2

    None.

Critical Paths under _interruptRoutine in BANK2

    None.

Critical Paths under _main in BANK3

    None.

Critical Paths under _interruptRoutine in BANK3

    None.

Critical Paths under _main in BANK4

    None.

Critical Paths under _interruptRoutine in BANK4

    None.

Critical Paths under _main in BANK5

    None.

Critical Paths under _interruptRoutine in BANK5

    None.

Critical Paths under _main in BANK6

    None.

Critical Paths under _interruptRoutine in BANK6

    None.

Call Graph Tables:

 ---------------------------------------------------------------------------------
 (Depth) Function   	        Calls       Base Space   Used Autos Params    Refs
 ---------------------------------------------------------------------------------
 (0) _main                                                 5     5      0       0
                                              0 BANK0      5     5      0
                               _init
 ---------------------------------------------------------------------------------
 (1) _init                                                 0     0      0       0
 ---------------------------------------------------------------------------------
 Estimated maximum stack depth 1
 ---------------------------------------------------------------------------------
 (Depth) Function   	        Calls       Base Space   Used Autos Params    Refs
 ---------------------------------------------------------------------------------
 (2) _interruptRoutine                                     3     3      0      22
                                              1 COMMON     3     3      0
                            _shiftIn
 ---------------------------------------------------------------------------------
 (3) _shiftIn                                              1     1      0      22
                                              0 COMMON     1     1      0
 ---------------------------------------------------------------------------------
 Estimated maximum stack depth 3
 ---------------------------------------------------------------------------------

 Call Graph Graphs:

 _main (ROOT)
   _init

 _interruptRoutine (ROOT)
   _shiftIn

 Address spaces:
Name               Size   Autos  Total    Cost      Usage
BIGRAM             1F0      0       0       0        0.0%
EEDATA             100      0       0       0        0.0%
NULL                 0      0       0       0        0.0%
CODE                 0      0       0       0        0.0%
BITCOMMON            E      0       0       1        0.0%
BITSFR0              0      0       0       1        0.0%
SFR0                 0      0       0       1        0.0%
COMMON               E      4       8       2       57.1%
BITSFR1              0      0       0       2        0.0%
SFR1                 0      0       0       2        0.0%
BITSFR2              0      0       0       3        0.0%
SFR2                 0      0       0       3        0.0%
STACK                0      0       0       3        0.0%
BITSFR3              0      0       0       4        0.0%
SFR3                 0      0       0       4        0.0%
ABS                  0      0      27       4        0.0%
BITBANK0            50      0       0       5        0.0%
BITSFR4              0      0       0       5        0.0%
SFR4                 0      0       0       5        0.0%
BANK0               50      5      1F       6       38.8%
BITSFR5              0      0       0       6        0.0%
SFR5                 0      0       0       6        0.0%
BITBANK1            50      0       0       7        0.0%
BITSFR6              0      0       0       7        0.0%
SFR6                 0      0       0       7        0.0%
BANK1               50      0       0       8        0.0%
BITSFR7              0      0       0       8        0.0%
SFR7                 0      0       0       8        0.0%
BITBANK2            50      0       0       9        0.0%
BITSFR8              0      0       0       9        0.0%
SFR8                 0      0       0       9        0.0%
BANK2               50      0       0      10        0.0%
BITSFR9              0      0       0      10        0.0%
SFR9                 0      0       0      10        0.0%
BITBANK3            50      0       0      11        0.0%
BITSFR10             0      0       0      11        0.0%
SFR10                0      0       0      11        0.0%
BANK3               50      0       0      12        0.0%
BITSFR11             0      0       0      12        0.0%
SFR11                0      0       0      12        0.0%
BITBANK4            50      0       0      13        0.0%
BITSFR12             0      0       0      13        0.0%
SFR12                0      0       0      13        0.0%
BANK4               50      0       0      14        0.0%
BITSFR13             0      0       0      14        0.0%
SFR13                0      0       0      14        0.0%
BITBANK5            50      0       0      15        0.0%
BITSFR14             0      0       0      15        0.0%
SFR14                0      0       0      15        0.0%
BANK5               50      0       0      16        0.0%
BITSFR15             0      0       0      16        0.0%
SFR15                0      0       0      16        0.0%
BITBANK6            10      0       0      17        0.0%
BITSFR16             0      0       0      17        0.0%
SFR16                0      0       0      17        0.0%
BANK6               10      0       0      18        0.0%
BITSFR17             0      0       0      18        0.0%
SFR17                0      0       0      18        0.0%
BITSFR18             0      0       0      19        0.0%
SFR18                0      0       0      19        0.0%
DATA                 0      0      27      19        0.0%
BITSFR19             0      0       0      20        0.0%
SFR19                0      0       0      20        0.0%
BITSFR20             0      0       0      21        0.0%
SFR20                0      0       0      21        0.0%
BITSFR21             0      0       0      22        0.0%
SFR21                0      0       0      22        0.0%
BITSFR22             0      0       0      23        0.0%
SFR22                0      0       0      23        0.0%
BITSFR23             0      0       0      24        0.0%
SFR23                0      0       0      24        0.0%
BITSFR24             0      0       0      25        0.0%
SFR24                0      0       0      25        0.0%
BITSFR25             0      0       0      26        0.0%
SFR25                0      0       0      26        0.0%
BITSFR26             0      0       0      27        0.0%
SFR26                0      0       0      27        0.0%
BITSFR27             0      0       0      28        0.0%
SFR27                0      0       0      28        0.0%
BITSFR28             0      0       0      29        0.0%
SFR28                0      0       0      29        0.0%
BITSFR29             0      0       0      30        0.0%
SFR29                0      0       0      30        0.0%
BITSFR30             0      0       0      31        0.0%
SFR30                0      0       0      31        0.0%
BITSFR31             0      0       0      32        0.0%
SFR31                0      0       0      32        0.0%


Microchip Technology PIC Macro Assembler V1.44 build -154322312 
Symbol Table                                                                                   Sun Nov 05 01:02:44 2017

                        _h 0070                          _i 0072                __CFG_CP$OFF 0000  
                       l71 0147                __CFG_LVP$ON 0000                        l774 00C8  
                      l784 0106                        l768 009D                        l794 0144  
                      l778 00D8                        l788 0116                        u310 00AF  
                      u315 00AB                        u340 00EC                        _PR2 001E  
                      u335 00D6                        u345 00E8                        u370 012A  
             __CFG_CPD$OFF 0000                        u355 0104                        u365 0114  
                      u375 0126                        u385 0142                        _hex 0020  
                      wreg 0009                       i1l90 007A                       i1l93 0190  
             __CFG_WRT$OFF 0000              __CFG_FCMEN$ON 0000                       _main 0090  
                     _init 0148                       fsr0h 0005                       fsr1h 0007  
                     indf0 0000                       fsr0l 0004                       indf1 0001  
                     fsr1l 0006                       btemp 007E              __CFG_BOREN$ON 0000  
            __CFG_BORV$LOW 0000                       start 007F              __CFG_CSWEN$ON 0000  
            __CFG_MCLRE$ON 0000   __end_of_interruptRoutine 007F                      ?_main 0074  
                    ?_init 0074              __CFG_WDTE$OFF 0000                      _LATC0 0870  
           __CFG_DEBUG$OFF 0000                      i1l730 0024                      i1l742 0043  
                    i1l760 006C                      i1l754 0059                      i1l748 004C  
                    u23_25 002B                      u24_25 0038                      u27_25 0057  
                    u28_25 006A                      _TRISC 008E                      _state 0038  
          __end_of_shiftIn 0194                      status 0003                      wtemp0 007E  
          __initialization 0081               __end_of_main 0148               __end_of_init 018B  
                   ??_main 003A                     ??_init 0078         __CFG_RSTOSC$HFINT1 0000  
                   _RC2PPS 0EA2                     _RC5PPS 0EA5                     _OSCFRQ 091F  
                   _TMR0IF 0085                     _PWM5EN 30CF                     _TMR2ON 00FA  
           __CFG_PWRTE$OFF 0000             __CFG_STVREN$ON 0000                  ??_shiftIn 0074  
  __end_of__initialization 008C             __pcstackCOMMON 0074                 __pbssBANK0 0020  
               __pmaintext 0090            __CFG_PPS1WAY$ON 0000                 __pintentry 0004  
        ?_interruptRoutine 0074         ??_interruptRoutine 0075                    _OSCCON1 0919  
                  _SSP1BUF 0211                shiftIn@data 0074                    __ptext1 0148  
                  __ptext3 018B                    _shiftIn 018B                    clrloop0 0195  
     end_of_initialization 008C                  _TRISAbits 008C                  _TRISCbits 008E  
         __CFG_FEXTOSC$OFF 0000        start_initialization 0081           __CFG_LPBOREN$OFF 0000  
              __pbssCOMMON 0070                  ___latbits 0001              __pcstackBANK0 003A  
__size_of_interruptRoutine 007B                   ?_shiftIn 0074                  clear_ram0 0194  
                 _PIE0bits 0090                   _PIR0bits 0010                 _ADCON0bits 009D  
               _ADCON1bits 009E                 _ANSELAbits 018C                 _T0CON0bits 0017  
               _T0CON1bits 0018           __size_of_shiftIn 0009               _SSP1CON1bits 0215  
         _interruptRoutine 0004              __size_of_main 00B8              __size_of_init 0043  
                 int$flags 007E               _SSP1STATbits 0214                 _INTCONbits 000B  
                 intlevel1 0000          __CFG_CLKOUTEN$OFF 0000                _PWMTMRSbits 061F  
